:020000040C00EE
:1000000000C8FF1F010200089102000891020008C9
:10001000910200089102000891020008000000000F
:100020000000000000000000000000009102000835
:1000300091020008000000009102000891020008EF
:100040009102000891020008910200089102000844
:1000500091020008850B0008910200089102000837
:1000600091020008000000000000000000000000F5
:1000700091020008000000009102000891020008AF
:100080009102000891020008910200089102000804
:1000900091020008910200089102000891020008F4
:1000A000910200089102000800000000000000001A
:1000B0000000000000000000000000000000000040
:1000C0000000000000000000000000000000000030
:1000D0000000000000000000000000000000000020
:1000E00000000000000000009102000891020008DA
:1000F0009102000891020008910200089102000894
:1001000091020008590B00089102000891020008B2
:1001100000000000000000000000000000000000DF
:1001200000000000000000000000000000000000CF
:100130009102000891020008910200089102000853
:1001400000000000000000000000000000000000AF
:100150009102000891020008000000000000000069
:100160009102000891020008910200089102000823
:100170009102000891020008910200089102000813
:100180009102000891020008910200089102000803
:10019000910200089102000891020008553C0008F5
:1001A00091020008653C00089102000891020008D5
:1001B00091020008910200089102000891020008D3
:1001C000000000000000000000000000000000002F
:1001D0000000000000000000910200080000000084
:1001E000910200089102000800000000910200083E
:1001F00000000000000000000000000000000000FF
:10020000DFF86CD01B4880471B4C1C4DAC4209DA10
:1002100021686268A368043BA2BFC858D050FAE7BF
:100220000C34F3E7164B174CA34208DA19685A68E6
:100230000020043AA4BF8850FBE70833F4E71248D3
:1002400080471248804700000C63000C00C8FF1F65
:10025000840100000C63000C00C8FF1F00000000B8
:1002600084C9FF1F040100000000002000000000FE
:1002700000C8FF1F390F000848020008600200088C
:10028000600200087002000809560008910B00087F
:10029000FEE7000080B500AF034805F035F90346DE
:1002A0001A46024B1A8080BDF0C8FF1F84C9FF1F89
:1002B00080B400AF034B1B881846BD465DF8047B35
:1002C000704700BF84C9FF1F90B587B002AFBA2343
:1002D000FB731B4A07F10C031188927819809A70FE
:1002E00007F10F0401230093012301931548012115
:1002F0007022234604F082F80023BB6002E0BB6852
:100300000133BB60BB68104A9342F8D907F10C0473
:1003100003230093012301930A48012170222346FD
:1003200004F06CF800237B6002E07B6801337B60A3
:100330007B68054A9342F8D91437BD4690BD00BF8B
:10034000E85E00084CC8FF1FDF93040090B58DB035
:1003500004AF434A07F110031188927819809A700C
:100360000A23FB7707F11004032300930123019371
:100370003C4801217022234604F040F80346002B3C
:1003800001D0002368E000237B6002E07B6801333A
:100390007B607B68344A9342F8D907F1080406234E
:1003A000009301230193012302932E48012170221F
:1003B000234604F04DF80346002B01D000234BE008
:1003C000FB7F013BFB773B7ADBB25BB2002B02DAAF
:1003D000FB7F002BD7D1FB7F002B01D100233BE01B
:1003E0007B7A1A03BB7A1B011343FA7A1209D2B241
:1003F0001343BB61FB7A03F00F031A043B7B1B0220
:1004000013437A7B13437B61BB6907EE903AF8EEA6
:10041000677A9FED167A67EE877A9FED157AC7EEB9
:10042000877A144BC3ED017A7B6907EE903AF8EEB8
:10043000677A9FED117A67EE877A9FED0D7AC7EEA6
:10044000877A9FED0E7A77EEC77A0A4BC3ED007A72
:10045000084B01221A72012318462437BD4690BD6D
:10046000EC5E00084CC8FF1F8FD003000000C8429C
:100470000000804988C9FF1F00004843000048422F
:1004800080B500AF00F014FB00F0A2FBFFF71CFFEB
:1004900000F09CF980BD00BF80B500AFFFF7FAFE09
:1004A00000F09EFB00F0D8F900F04CF880BD00BFD2
:1004B00080B400AF034B01221A70BD465DF8047B87
:1004C000704700BF94C9FF1F80B400AF054B1B7875
:1004D0001A46054B33F812301846BD465DF8047BCA
:1004E000704700BF00C8FF1FF05E000880B400AF77
:1004F000084B1B780133DAB2064B1A70054B1B7898
:10050000132B02D9034B00221A70BD465DF8047B01
:10051000704700BF00C8FF1F80B400AF084B1B78B6
:10052000002B03D1064B13221A7005E0044B1B78F5
:10053000013BDAB2024B1A70BD465DF8047B70478E
:1005400000C8FF1F80B584B000AF284B1B78DBB21A
:10055000002B48D0254B00221A70FFF7F7FE244BE2
:10056000D3ED007A9FED237A77EE877AB2EE047AA4
:1005700067EE877AFDEEE77A17EE903AFB601C4B48
:10058000D3ED017AB2EE047A67EE877AFCEEE77A71
:1005900017EE903ABB60FB68DBB23B70FB681B1246
:1005A000DBB27B70FB681B14DBB2BB70FB681B16F5
:1005B000DBB2FB70BB68DBB23B71BB681B0ADBB212
:1005C0007B71BB681B0CDBB2BB71BB681B0EDBB263
:1005D000FB71FFF779FF03461A463B461046194662
:1005E000082200F009F81037BD4680BD94C9FF1FEE
:1005F00088C9FF1F00005C4280B584B000AF03468D
:100600003960FB8013467B71244BFB60FB681B69E0
:100610001B68BB60BB687A791A73FA8822F0604263
:10062000B9684B6862F31C034B603B681B781A4641
:100630003B6801331B781B021A433B6802331B786B
:100640001B041A433B6803331B781B0613431A46EB
:10065000BB681A613B6804331B781A463B68053354
:100660001B781B021A433B6806331B781B041A4392
:100670003B6807331B781B0613431A46BB685A6155
:10068000FB681B69184604F0DDFCFB681B69184613
:1006900004F004FD1037BD4680BD00BF1C62000899
:1006A00090B589B002AF0346FB71FB7923F00F03CD
:1006B000FB75FB791B01BB75FB7D43F00C03DBB2C3
:1006C0003B74FB7D43F00803DBB27B74BB7D43F0DE
:1006D0000C03DBB2BB74BB7D43F00803DBB2FB74DD
:1006E00007F1100404230093012301930948012119
:1006F0004E22234603F082FE0023FB6002E0FB68EB
:100700000133FB60FB6844F61F629342F7D91C3744
:10071000BD4690BD4CC8FF1F90B589B002AF0346DF
:10072000FB71FB7923F00F03FB75FB791B01BB7594
:10073000FB7D43F00D03DBB23B74FB7D43F009030B
:10074000DBB27B74BB7D43F00D03DBB2BB74BB7DBE
:1007500043F00903DBB2FB7407F110040423009398
:1007600001230193094801214E22234603F046FE4E
:100770000023FB6002E0FB680133FB60FB6844F68A
:100780001F629342F7D91C37BD4690BD4CC8FF1F6E
:1007900080B582B000AF786039607B68002B02D0F2
:1007A000012B05D009E03B6843F080033B6004E087
:1007B0003B6843F0C0033B6000BF3B68DBB21846B8
:1007C000FFF76EFF0837BD4680BD00BF80B582B021
:1007D00000AF3320FFF764FF3220FFF761FF2820CE
:1007E000FFF75EFF0C20FFF75BFF0120FFF758FFCC
:1007F0000620FFF755FF012000F008F900237B6079
:1008000002E07B6801337B607B68034A9342F8D93E
:100810000837BD4680BD00BFDF93040080B584B0BB
:1008200000AF786011E07B685A1C7A601B7818462C
:10083000FFF772FF0023FB6002E0FB680133FB60FF
:10084000FB6841F287329342F7D97B681B78002B13
:10085000E9D11037BD4680BD80B500AF0F4B1B6896
:1008600001330E4A13600D4B1B680D4A934213D996
:100870000A4B00221A600B4B1B7A002B0CD00A4B40
:100880001B78002B02D0012B03D005E000F00EF8FE
:1008900002E000F07DF800BF80BD00BF9CC9FF1FD3
:1008A0001FA1070088C9FF1F99C9FF1F90B589B014
:1008B00000AF324BD3ED007A9FED317A67EE877A45
:1008C000FDEEE77A17EE903AFB612C4BD3ED017AFF
:1008D0009FED2B7A67EE877AFDEEE77A17EE903A76
:1008E000BB6100200021FFF753FF00200021FFF72C
:1008F0004FFFFB69234A82FB03125211DB17D41A04
:10090000FA69204B83FB02135911D317CB1A6421C8
:1009100001FB03F3D31A002BB8BF5B423A1D10460C
:100920001949224604F0D4FE3B1D1846FFF776FF16
:1009300001200021FFF72CFFBB69124A82FB031242
:100940005211DB17D41ABA690E4B83FB02135911EB
:10095000D317CB1A642101FB03F3D31A002BB8BFC2
:100960005B423A1D10460949224604F0B1FE3B1D88
:100970001846FFF753FF2437BD4690BD88C9FF1FB7
:100980000000C8421F85EB51185F0008285F00086F
:1009900080B586B000AF00200021FFF7F9FE154BAF
:1009A0001B889BB21A463B1D1846134904F090FE63
:1009B0003B1D1846FFF732FF01200021FFF7E8FE3C
:1009C0000E4B1B78DBB2002B03D00D48FFF726FF40
:1009D0000DE000200021FFF7DBFE0A48FFF71EFFB5
:1009E00001200021FFF7D4FE0748FFF717FF183753
:1009F000BD4680BD96C9FF1F385F000898C9FF1F1C
:100A0000405F0008485F0008505F000880B483B072
:100A100000AF0346FB71044AFB7913700C37BD46E7
:100A20005DF8047B704700BF99C9FF1F80B483B095
:100A300000AF78600B46FB70FB7801229A407B6820
:100A40005A600C37BD465DF8047B704780B483B0B4
:100A500000AF78600B46FB70FB784FF001129A40B4
:100A60007B685A600C37BD465DF8047B704700BF59
:100A700080B582B000AF78607B681A687B681B7CA9
:100A800010461946FFF7D2FF0837BD4680BD00BFAC
:100A900080B582B000AF78607B681A687B681B7C89
:100AA00010461946FFF7D2FF0837BD4680BD00BF8C
:100AB00080B400AF064B01221A70054B4FF4FA7256
:100AC0005A60034B00229A60BD465DF8047B704774
:100AD00004C8FF1F80B500AF0A4B1B78002B10D055
:100AE000084B9B686433074A9360064B9A68054B32
:100AF0005B689A4205D30448FFF7CAFF014B002206
:100B00009A6080BD04C8FF1FA461000880B500AFD3
:100B1000084B1B78002B0CBF01230023DBB21A46C5
:100B2000044B1A70034B1B78002B02D10248FFF7CD
:100B30009FFF80BD04C8FF1FA461000880B483B07C
:100B400000AF7860034A7B6853600C37BD465DF8A0
:100B5000047B704704C8FF1F80B500AFFFF7BAFFE2
:100B6000074B1B780133DAB2054B1A70044B1B7824
:100B7000042B04D9024B00221A70FFF799FC80BDA8
:100B8000A0C9FF1F80B500AFFFF7C0FF80BD00BF49
:100B900080B500AF04F0D0FC0346002B00D0FEE788
:100BA000FFF76EFCFFF778FCFCE700BF80B582B072
:100BB00000AF7860786804F0AFFD034603487968B9
:100BC0001A4602F0F1FC0837BD4680BD10C8FF1F71
:100BD00080B500AF0148FFF7E9FF80BD5C5F00080A
:100BE00080B500AF0A480B49012202F0F9FC034628
:100BF000002B0BD1074B1B78002B07D0054B1B7824
:100C0000184600F009F8034B00221A7080BD00BF9F
:100C100010C8FF1FA4C9FF1FF0B58FB006AF034671
:100C2000FB71FB792B2B10D1B34B5B6864331846F7
:100C3000FFF784FFB04B5B68B0488021B04A04F0F6
:100C400015FDAE48FFF7B2FF35E0FB792D2B14D12F
:100C5000A94B5B68642B05D9A74B5B68643B1846BE
:100C6000FFF76CFFA44B5B68A4488021A44A04F002
:100C7000FDFCA248FFF79AFF1DE0FB796C2B0DD11C
:100C8000FFF744FF9C4B1B78002B03D09D48FFF7D8
:100C90008DFF10E09C48FFF789FF0CE0FB79622B89
:100CA00009D1954B5B6895488021954A04F0DEFC9C
:100CB0009248FFF77BFFFB79612B0BD1FFF7F8FA26
:100CC00003468E488021914A04F0D0FC8B48FFF700
:100CD0006DFF0EE1FB79742B34D1FFF737FB034630
:100CE000002B2BD08A4BD3ED007A9FED8A7A67EEEA
:100CF000877AFDEEE77A17EE903AFB61FB69864A48
:100D000082FB03125211DB17D41AFA69824B83FB60
:100D100002135911D317CB1A642101FB03F3D31A21
:100D2000002BB8BF5B420093744880217B4A234666
:100D300004F09CFC7148FFF739FFDAE07848FFF7D0
:100D400035FFD6E0FB79682B34D1FFF7FFFA034675
:100D5000002B2BD06E4BD3ED017A9FED6E7A67EEB0
:100D6000877AFDEEE77A17EE903ABB61BB696A4A73
:100D700082FB03125211DB17D41ABA69664B83FB4C
:100D800002135911D317CB1A642101FB03F3D31AB1
:100D9000002BB8BF5B42009358488021614A23462C
:100DA00004F064FC5548FFF701FFA2E05C48FFF740
:100DB000FDFE9EE0FB79632B5AD1FFF7C7FA544B37
:100DC000D3ED007A9FED537A67EE877AFDEEE77AEE
:100DD00017EE903A7B614E4BD3ED017A9FED4D7A41
:100DE00067EE877AFDEEE77A17EE903A3B61FFF700
:100DF0006BFB0346FB81B7F80EE0FD897B69464A31
:100E000082FB03125211DB17D41A7A69424B83FB1F
:100E100002135911D317CB1A642101FB03F3D31A20
:100E200083EAE370A0EBE3703B693B4A82FB031269
:100E30005211DB17D11A3A69374B83FB02635E11FB
:100E4000D317F31A642606FB03F3D31A002BB8BF9B
:100E50005B420095019402900391049327488021FE
:100E6000314A734604F002FC2448FFF79FFE40E03D
:100E7000FB796E2B13D1FFF739FBFFF725FB0346F8
:100E80001C46FFF721FB034600931C488021274A9C
:100E9000234604F0EBFB1948FFF788FE29E0FB79B5
:100EA000702B13D1FFF738FBFFF70EFB03461C46F0
:100EB000FFF70AFB03460093104880211B4A234694
:100EC00004F0D4FB0D48FFF771FE12E0FB79312BE3
:100ED00006D10020FFF79AFD1548FFF767FE08E0EE
:100EE000FB79322B05D10120FFF790FD1148FFF768
:100EF0005DFE2437BD46F0BD04C8FF1FA5C9FF1F16
:100F00008C5F0008A05F0008B45F0008C05F0008A5
:100F100088C9FF1F0000C8421F85EB51CC5F000845
:100F2000E05F0008F05F000804600008406000080F
:100F3000606000087860000898B500AF084A4FF07C
:100F4000005314460FCB84E80F00064B064A07CA2D
:100F500083E8070003F098FE03F000FF98BD00BF90
:100F6000C45F0020D45F00208400002080B584B0DE
:100F700000AF2F4BDB6803F48033002B3ED02D4BAA
:100F8000DB6803F00103002B02D02B4BFB6002E077
:100F900003F0DAFEF860274B1B6803F00403002B14
:100FA00020D0244B9B6803F070631B0E0133BB60A1
:100FB000204B9B6803F4FE431B0A01337B601D4BEF
:100FC0009B6803F4FE031B0C01333B60BB683A686B
:100FD00002FB03F3FA68B2FBF3F37A6802FB03F354
:100FE000FB600DE0134B9B6803F07F0301333B6014
:100FF000FA683B68B2FBF3F3FB6001E00E4BFB6069
:101000000B4BDB68DBB20133FA68B2FBF3F3FB6036
:10101000074B1B6903F001030133FA68B2FBF3F3DA
:10102000FB60064AFB6813601037BD4680BD00BFF9
:10103000004600501047005000366E01C05F00208F
:1010400080B582B000AF78607B68074A934207D1D1
:101050004FF4803000F0EAFA4FF4803000F076F977
:101060000837BD4680BD00BF0040044080B485B055
:1010700000AFF8600B467A60FB72FB7A9B08DBB22C
:101080001846FB7A9B08DBB21A46FB68043253F819
:101090002220FB7A03F00303DB001946F8238B4080
:1010A000DB4302EA0301FB68021D43F82210FB68E0
:1010B0005A6FFB7A5B00194603238B40DB431A40CF
:1010C000FB685A67FB68384A93420AD1FB681A6E7C
:1010D000FB7A012101FA03F3DB431A40FB681A662D
:1010E00042E07B681B78DBB25BB2002B3CDA7B68AA
:1010F0005A68FB7A9A40FB685A60FB7ADB08DBB2DD
:101100001846FB7ADB08DBB21A46FB68103253F84C
:101110002220FB7A03F007039B00194607238B402C
:10112000DB4302EA0301FB6800F1100243F82210DE
:10113000FB7ADB08DBB21846FB7ADB08DBB21A4627
:10114000FB68103253F822207B681B7A1946FB7A21
:1011500003F007039B0001FA03F342EA0301FB6873
:1011600000F1100243F82210FB7A9B08DBB218460C
:10117000FB7A9B08DBB21A46FB68043253F8222044
:101180007B681B781946FB7A03F00303DB0001FA46
:1011900003F342EA0301FB68021D43F822101437EF
:1011A000BD465DF8047B7047008E024880B400AFF6
:1011B000034B1B681846BD465DF8047B704700BFB3
:1011C000C05F002080B400AF034BD3F8C430184692
:1011D000BD465DF8047B70470040005080B584B088
:1011E00000AF7860FFF7C2FE0B4B1B680B4AA2FBF7
:1011F00003239A0C7B6802FB03F37B600023FB60F4
:1012000003E000BFFB680133FB60FA687B689A4229
:10121000F7D31037BD4680BDC05F002083DE1B437F
:1012200080B400AF034B5B681846BD465DF8047B95
:10123000704700BF7440005080B483B000AF786046
:10124000034A7B68D3600C37BD465DF8047B70476A
:1012500074400050B0B584B002AF7860002000F058
:10126000C5F800F0B3FA7B68DB79002B0AD000F0F8
:10127000EBFA00BF00F0D6FA034683F00103DBB2BD
:10128000002BF7D17B685B7A184600F029F900BF84
:10129000FFF798FF0346002BFAD17B681B7A1846AC
:1012A00000F06EFA7B681B7C184600F037F97B680B
:1012B0005B7C184600F05AF97B689B7C184600F06E
:1012C00041F97B68DB7C184600F064F97B689B7908
:1012D000002B0AD000F0F0FA00BF00F015FB034627
:1012E00083F00103DBB2002BF7D17B68DB78002BA6
:1012F00009D17B689B7983F00103DBB2002B17D007
:1013000000F026FB14E000F013FB7B6899887B68F3
:10131000DA787B685B781D467B681B781C467B68A7
:101320009B780093084611462A46234600F020FB8E
:101330007B68DB68B3F5803F03D14FF4803000F069
:1013400055F8FFF713FE0837BD46B0BD80B485B031
:1013500000AF78607B681B0FFB607B6823F07043F5
:10136000BB60FA6813465B0013449B001A46044BAB
:101370001344BA681A601437BD465DF8047B7047A1
:101380001444005080B485B000AF78607B681B0FB8
:10139000FB607B6823F07043BB60FA6813465B0018
:1013A00013449B001A46084B13441A68BB68134049
:1013B000002B14BF01230023DBB218461437BD46AF
:1013C0005DF8047B704700BF0C44005080B500AF4F
:1013D000FFF7ECFE0246044B5B6903F0010322FABF
:1013E00003F3184680BD00BF0046005080B483B0B0
:1013F00000AF78600649064BDB6823F480327B68D7
:101400001343CB600C37BD465DF8047B704700BFCB
:101410000046005080B483B000AF78600649064BA8
:101420009B6923F480327B6813438B610C37BD4684
:101430005DF8047B704700BF0046005080B483B065
:1014400000AF78600649064B5B6A23F440327B6844
:1014500013434B620C37BD465DF8047B704700BFF9
:101460000046005080B483B000AF0346FB80FB8889
:10147000002B08D10A4A0A4BDB6823F4807323F05F
:101480000103D36007E0064A054BDB6843F4807331
:1014900043F00103D3600C37BD465DF8047B704711
:1014A0001047005080B483B000AF0346FB7100BF0B
:1014B000094BD3F8C43003F00803002BF8D10749D7
:1014C000064BDB6823F04002FB791343CB600C37FB
:1014D000BD465DF8047B704700400050004300505B
:1014E00080B483B000AF0346FB7100BF094BD3F853
:1014F000C43003F00803002BF8D10749064BDB6822
:1015000023F08002FB791343CB600C37BD465DF8B6
:10151000047B7047004000500043005080B483B00B
:1015200000AF78600649064BDB6823F0FF027B685A
:10153000013B1343CB600C37BD465DF8047B70471D
:101540000046005080B483B000AF78600649064B77
:101550001B6A23F001027B68013B13430B620C37CB
:10156000BD465DF8047B70470046005080B483B0F0
:1015700000AF78600649064B1B6923F001027B68C7
:10158000013B13430B610C37BD465DF8047B70478C
:101590000046005080B483B000AF78600649064B27
:1015A0005B6923F001027B68013B13434B610C37FD
:1015B000BD465DF8047B70470046005080B483B0A0
:1015C00000AF78600649064B9B6923F007027B68F1
:1015D000013B13438B610C37BD465DF8047B7047BC
:1015E0000046005080B483B000AF78600649064BD7
:1015F0005B6A23F0FF027B68013B13434B620C37AD
:10160000BD465DF8047B70470046005080B483B04F
:1016100000AF0346FB71044AFB7953600C37BD46AB
:101620005DF8047B704700BF0046005080B485B071
:1016300000AF78607B681B0FFB607B6823F0704312
:10164000BB60FA6813465B0013449B001A46044BC8
:101650001344BA681A601437BD465DF8047B7047BE
:101660004846005080B485B000AF78607B681B0F9F
:10167000FB607B6823F07043BB60FA6813465B0035
:1016800013449B001A46084B13441A68BB68134066
:10169000002B14BF01230023DBB218461437BD46CC
:1016A0005DF8047B704700BF4046005080B400AF37
:1016B000054A054B5B6923F4803323F00203536131
:1016C000BD465DF8047B70471047005080B483B07E
:1016D00000AF78603960284A274B5B6943F001030B
:1016E000536100BF244B1B6903F00103002BF9D0A9
:1016F000214A214B5B6943F0100353611E493B684B
:10170000013B1A027B68013B1B0613434B611A4ADB
:10171000194B5B6943F040035361174A164B5B69F1
:1017200023F010035361144A134B5B6943F4802385
:10173000536100BF104B1B6903F00403002BF9D069
:101740000D4A0D4B5B6923F00103536100BF0A4B47
:101750001B6903F00103002BF9D1074A064B5B69B3
:1017600023F040035361054B0822DA600C37BD4675
:101770005DF8047B704700BF104700506041005087
:1017800080B582B000AF0346FB710F4A0E4B5B6819
:1017900043F480135360FB79012B0ED10A4A0A4BA4
:1017A0005B6823F4801353606420FFF717FD064A3B
:1017B000054B5B6843F4002353606420FFF70EFD84
:1017C0000837BD4680BD00BF1047005080B400AF51
:1017D000124B1B6803F00103002B09D10F4B0122B0
:1017E0005A6000BF0D4B1B6803F00103002BF9D0BA
:1017F0000B4B1B6803F40073002B0AD0084B4FF40B
:1018000000729A6000BF064B1B6803F40073002B44
:10181000F9D1BD465DF8047B704700BF004200501F
:101820000044005080B400AF064B1B6803F008036F
:10183000002B0CBF01230023DBB21846BD465DF828
:10184000047B70470043005080B500AF4FF40000A8
:10185000FFF7F2FC174A174BDB6923F03003D36123
:1018600000BFFFF7DDFC034603F40003002BF8D0B4
:101870004FF40030FFF7E0FC0E4B08225A6000BF27
:10188000FFF7CEFC034603F40033002BF8D04FF4EF
:101890000020FFF7D1FC074A064BDB6843F0080342
:1018A000D36000BFFFF7BCFC034603F40023002B0A
:1018B000F8D080BD00430050B0B500AF0F4A0F4BC9
:1018C0005B6823F4803353600D4D0D4B5B6823F44C
:1018D000702424F0300403F037FA0246094BA3FBCE
:1018E00002231B0D013B1B0423436B60034A034B84
:1018F0005B6823F400335360B0BD00BF1047005055
:10190000004700506BCA5F6B80B400AF074B1B6889
:1019100003F46073B3F5607F0CBF01230023DBB2D7
:101920001846BD465DF8047B704700BF1047005065
:1019300080B400AF054A054B5B6823F4803323F085
:1019400002035360BD465DF8047B704710470050AA
:1019500080B400AF054A054B5B6843F4803343F025
:1019600002035360BD465DF8047B7047104700508A
:1019700080B586B000AFBA607B600346FB810B4642
:101980007B73FB891846FFF76DFD7B7B012B40F0D5
:101990008B80FB89002B09D103F0D6F90246544B0A
:1019A000A3FB02239B0C9B057B6102E04FF0C0630D
:1019B0007B617B697A6802FB03F2BB68B2FBF3F3DD
:1019C0007B617B694B4AA2FB03231B099B0D3B6197
:1019D000494A494B5B6843F00103536000BF464BE3
:1019E0001B6803F00103002BF9D0434A424B5B68AC
:1019F00043F01003536040493F4B9A683F4B1340FC
:101A00007A68013A12021A433B69013B1B041A43EC
:101A1000BB68013B1B0613438B60374A364B5B6840
:101A200043F040035360344A334B5B6823F01003A8
:101A30005360314A304B5B6843F48023536000BFEE
:101A40002D4B1B6803F00403002BF9D02A4A2A4BC4
:101A50005B6823F00103536000BF274B1B6803F052
:101A60000103002BF9D17B69254AA2FB03235B0903
:101A70009B0D3B613A6A3B699A4202D2386900F099
:101A800045F87B695B081F4AA2FB03235B099B0D9A
:101A90003B613A6A3B699A4202D2386900F036F8F3
:101AA000386A00F033F81CE01349134B9B6823F0AD
:101AB0007F023B6A013B13438B6000BF0E4B1B68E8
:101AC00003F01003002BF9D00B4A0B4B5B6843F07B
:101AD0000103536000BF084B1B6803F00103002B98
:101AE000F9D0094B0522DA601837BD4680BD00BF2A
:101AF00083DE1B43ABAAAAAA10470050FF8080F0E8
:101B000089888888B7600BB66041005080B582B084
:101B100000AF78600B490B4B9B6823F4FE027B6897
:101B2000013B1B0413438B6000BF064B1B6803F093
:101B30002003002BF9D03220FFF750FB0837BD46B9
:101B400080BD00BF1047005080B483B000AF786004
:101B50007B68D3F8C43103F44073002B0CBF01231E
:101B60000023DBB218460C37BD465DF8047B704796
:101B700080B483B000AF7860084611461A46034629
:101B8000FB700B46BB7013467B70FA78BB781B0466
:101B900003F47F031A437B781B061A437B68C3F860
:101BA000C4210C37BD465DF8047B704780B483B018
:101BB00000AF78607B681B6843F040027B681A6066
:101BC0000C37BD465DF8047B704700BF80B483B01E
:101BD00000AF78607B681B6823F040027B681A6066
:101BE0000C37BD465DF8047B704700BF80B483B0FE
:101BF00000AF786039603A687B68934238BF13461B
:101C000018460C37BD465DF8047B704780B483B03E
:101C100000AF786039603A687B68934228BF13460A
:101C200018460C37BD465DF8047B704780B588B018
:101C300000AF786039603B681B683A685268B3FB54
:101C4000F2F102FB01F29B1A002B40F0908000237E
:101C5000FB610023BB613B681A683B685B68B2FBB1
:101C6000F3F3BB6019237B6100233B610023FB601E
:101C70004BE0BB687A69B3FBF2F2796901FB02F2CF
:101C80009B1A002B3ED10023BB61BA687B69B2FB73
:101C9000F3F3FB61FB69002B34D0FB69B3F5007FE4
:101CA00030D8FB693F2B0AD9FB6903F00703002BEF
:101CB00003D07B69013B7B6127E00123BB617B692A
:101CC000013B3A68128902FB03F32B4AA2FB032370
:101CD0005B0B3B617A693B69D31A013BFB603B6953
:101CE000022B0FD93B690F2B0CD8FB68012B09D9AC
:101CF000FB68062B06D83B685B891A46FB689A424C
:101D000000D805E07B69013B7B617B69072BB0D87C
:101D10007B69072B2BD97868FFF748FFFB68013BED
:101D20001B0303F4E0423B685B89013B9B01DBB290
:101D30001A433B69013B1B0203F4706342EA03014F
:101D4000BA6913465B0013441A46FB69D340013B52
:101D500003F03F0341EA0302BB69DB039BB21A4372
:101D60007B681A617868FFF731FF002300E00123E8
:101D700018462037BD4680BD5917B7D180B582B00F
:101D800000AF78600B46FB701346BB7000BF7868ED
:101D9000FFF7DAFE034683F00103DBB2002BF6D136
:101DA000FB780133DBB2BA7878680221FFF7E0FEF6
:101DB0000837BD4680BD00BF80B582B000AF7860F7
:101DC0000A48FFF733FC0948FFF7C0FA7B681B6835
:101DD00023F001027B681A6000BF7B681B6803F078
:101DE0000203002BF9D10837BD4680BD100000105A
:101DF00080B483B000AF78600B46FB700C37BD46F3
:101E00005DF8047B704700BF80B584B000AF786098
:101E10000023FB60FFF7DAFAF860FB68184610371A
:101E2000BD4680BD80B588B000AFF8600B467A60D3
:101E3000FB72F868FFF7C0FFFB7AF8681946FFF7F6
:101E4000D7FFF868FFF7E0FFF861FA697B68B2FB3B
:101E5000F3F3C3F5806300201946FFF7C7FE03467E
:101E6000184640F2FF31FFF7D1FEB861BB69C3F5F8
:101E70008063FA69B2FBF3F37B61FB68DB6823F4F0
:101E8000434323F0FF03FA68D360FB68DA68BB6959
:101E9000134343F48042FB68DA607B6918462037BD
:101EA000BD4680BD80B586B000AF78607B681B689A
:101EB00003F13843A3F5A8335B097B617B695B09B8
:101EC0005A037B6903F01F031B0213433B617B68CA
:101ED0001B687A681268926822F47F429A607B6875
:101EE0001B687A68126891683A690A439A607B684D
:101EF000DB7903F02003DBB2002B07D07B68DB79B2
:101F000003F02003DBB2002B00D160E07B681B7E76
:101F1000002B04D07B681B7E012B00D057E07B6830
:101F20001B682022DA617B68DB7903F02003DBB2D7
:101F3000002B28D17B685B68FB60FB6803F0604383
:101F4000FB607B685B68C3F31C039B041A46FB6859
:101F50001343FB607B681B68FA689A617B689B6827
:101F6000FB60FB6803F06043FB607B689B68C3F326
:101F70001C039B041A46FB681343FB607B681B68C9
:101F8000FA68DA6009E07B681B687A6852689A61CF
:101F90007B681B687A689268DA607B681B7E012B1D
:101FA0000CD1786800F01AF87B681B684FF000626B
:101FB000DA617B681B68074ADA6108E07B681B68A6
:101FC0004FF40062DA617B681B68034ADA611837F4
:101FD000BD4680BDC00020064006A00080B485B08C
:101FE00000AF78600323FB737B681B7E012B22D13B
:101FF0007B681B682022DA617B681B687A6812683C
:10200000126822F070617A68127B120602F0706228
:102010000A431A607B681B687A6812691A617B68D8
:102020001B687A6852695A617B681B68064ADA61E4
:102030000023FB7301E00323FB73FB7B184614377B
:10204000BD465DF8047B70474000280080B487B02F
:1020500000AF78600123FB757B681B68DB6903F0C8
:1020600020035B093B617B681B68DB6903F48073B9
:102070001B0AFB603B69002B02D10423FB750CE0BB
:10208000FB68012B02D10223FB7506E07B681B680D
:102090004FF0E062DA610023FB75FB7D18461C37C8
:1020A000BD465DF8047B704780B483B000AF7860B4
:1020B00039603B68B3F5800F06D07B681A683B68CF
:1020C0001A437B681A6005E07B689A693B681A438B
:1020D0007B689A610C37BD465DF8047B704700BF92
:1020E00080B483B000AF78607B684FF48072DA60B0
:1020F0000C37BD465DF8047B704700BF80B582B0E9
:1021000000AF78607B68084A934203D10420FFF750
:102110001DF906E07B68054A934202D10820FFF7CB
:1021200015F90837BD4680BD00C0004000000140E1
:1021300080B582B000AF78607B68084A934203D1D3
:102140000420FFF773FA06E07B68054A934202D148
:102150000820FFF76BFA0837BD4680BD00C000407D
:102160000000014080B582B000AF78601020FFF71A
:102170004DFA7868FFF7DCFF7868FFF7BFFF083794
:10218000BD4680BD80B584B000AF78600B46FB7063
:102190007868FFF7E7FF7868FFF7A2FF7B681B68A6
:1021A000FB60FB6823F44043FB60FB789B03FA6809
:1021B0001343FB607B68FA681A601037BD4680BD28
:1021C00080B483B000AF786039603B681A687B6880
:1021D0005A613B685B79C3F34013DBB21A057B6835
:1021E0005A603B681B79C3F30303DBB21A467B6872
:1021F0005A623B685B79C3F30303DBB21A467B6820
:102200001A623B685B79C3F30013DBB21A467B6842
:102210009A613B681B79C3F30313DBB21A467B68F0
:10222000DA620C37BD465DF8047B704780B487B036
:1022300000AF78600B46FB701346BB70FB780B2B2E
:1022400036D801A252F823F079220008792200083A
:102250008322000883220008B1220008B12200086E
:10226000B1220008B12200088D220008992200083E
:10227000A5220008A522000803233B6100237B61FF
:102280001BE00C233B6102237B6116E04FF440739B
:102290003B6108237B6110E04FF440633B610A23FC
:1022A0007B610AE04FF440533B610C237B6104E007
:1022B00000233B6100237B6100BF3B69002B13D0EF
:1022C0007B68D3F8A830FB603B69DB43FA681340B6
:1022D000FB60BA787B6902FA03F3FA681343FB6088
:1022E0007B68FA68C3F8A8201C37BD465DF8047BFC
:1022F000704700BF80B584B000AFF8600B467A60CD
:10230000FB72F868FEF79CFEFB681A68FB7A9B007C
:1023100019460F238B40DB431A407B681B68F97A10
:1023200089008B401A43FB681A60FA7A7B68596807
:10233000FB68043243F822101037BD4680BD00BF51
:1023400080B483B000AF78600B46FB701346BB705F
:10235000FA78BB7803F00303D9B27B68083201F046
:102360000301090153F8220020F03000014343F833
:1023700022100C37BD465DF8047B704780B483B0F3
:1023800000AF78600B46FB701346BB70FB789B0870
:10239000DBB21846FB789B08DBB21A467B68043236
:1023A00053F82220FB7803F00303DB001946F823DF
:1023B0008B40DB4302EA03017B68021D43F82210D5
:1023C000FB789B08DBB21846FB789B08DBB21A4609
:1023D0007B68043253F82220BB78F97801F00301BE
:1023E000C9008B4042EA03017B68021D43F82210BA
:1023F0000C37BD465DF8047B704700BF80B483B0E6
:1024000000AF78600B46FB701346BB707B685A6F59
:10241000FB785B00194603238B40DB431A407B6843
:102420005A677B685A6FBB78F97849008B401A432A
:102430007B685A670C37BD465DF8047B704700BF68
:1024400080B483B000AF78607B689B6BDBB223F015
:102450007F03DBB218460C37BD465DF8047B70473E
:1024600080B483B000AF786039607B68DA6C3B6819
:102470001A437B68DA640C37BD465DF8047B70470D
:1024800080B584B000AFF860B9601346FB71F8689E
:1024900000F080FAFB68114A5A63BB68DB88F86871
:1024A000194600F01DF8FB79002B08D0BB681A68AC
:1024B000BB681B79F86811461A4600F03BF8FB68C8
:1024C0004FF4A0629A63FB684FF0FF32DA64FB6856
:1024D00000221A641037BD4680BD00BF03033F07CA
:1024E00080B483B000AF78600B467B807B8803F4B8
:1024F000F843B3F5F04F0ED17B68DB6B1B0C1B046C
:102500007A88D2B21A437B885B0003F47E431A4375
:102510007B68DA6308E07B68DB6B1B0C1B047A8842
:1025200012021A437B68DA630C37BD465DF8047B00
:10253000704700BF80B586B000AFF860B960134641
:10254000FB71BB68204A934219D8FB68DB6B23F40C
:102550000032FB68DA63FB79002B08D0BB68F868AF
:1025600019460A2200F0C2FA0346FB7527E0F86814
:10257000B9680A2200F048FA0346FB751FE0BB6801
:10258000124A934219D8FB68DB6B43F40032FB68B4
:10259000DA63FB79002B08D0BB68F868194619226A
:1025A00000F0A4FA0346FB7509E0F868B96819223F
:1025B00000F02AFA0346FB7501E00123FB75FB7D61
:1025C00018461837BD4680BDA0860100801A060057
:1025D00080B584B000AF78600B467B8013467B707B
:1025E0007B8843F480639BB2FB607B78012B03D133
:1025F000FB6843F00103FB607B68D3F8083103F00C
:10260000E063002B10D100BF7868FFF719FF034685
:10261000802BF9D078684FF40051FFF721FF7B68D9
:10262000FA68C3F8802003E07B68FA68C3F8802169
:102630001037BD4680BD00BF80B584B000AF786064
:102640000B467B8013467B707B8843F4A0639BB270
:10265000FB607B78012B03D1FB6843F00103FB6037
:102660007B68D3F8083103F0E063002B10D100BF82
:102670007868FFF7E5FE0346802BF9D078684FF4C1
:102680000051FFF7EDFE7B68FA68C3F8802003E095
:102690007B68FA68C3F880211037BD4680BD00BF53
:1026A00080B582B000AF78607B68D3F8083103F062
:1026B000E063002B11D100BF7868FFF7C1FE03462D
:1026C000802BF9D078684FF40051FFF7C9FE7B6882
:1026D0004FF4C062C3F8802004E07B684FF4C0620E
:1026E000C3F880210837BD4680BD00BF80B582B0E9
:1026F00000AF78600B46FB707B68D3F8083103F0BD
:10270000E063002B10D100BF7868FFF799FE034605
:10271000802BF9D078684FF40051FFF7A1FEFA78CA
:102720007B68C3F8802003E0FA787B68C3F88021D7
:102730000837BD4680BD00BF80B582B000AF78606D
:102740007B68D3F8083103F0E063002B11D100BFA0
:102750007868FFF775FE0346802BF9D078684FF450
:102760000051FFF77DFE7B684FF40072C3F88020B4
:1027700004E07B684FF40072C3F880210837BD463F
:1027800080BD00BF80B582B000AF78607B68D3F8B1
:10279000083103F0E063002B11D100BF7868FFF728
:1027A0004FFE0346802BF9D078684FF40051FFF7B5
:1027B00057FE7B684FF44072C3F8802004E07B68CA
:1027C0004FF44072C3F880210837BD4680BD00BF7A
:1027D00080B485B000AF78607B68D3F80C3103F02B
:1027E000E063002B03D17B685B6DFB7303E07B68C8
:1027F000D3F81C31FB73FB7B18461437BD465DF8DC
:10280000047B704780B483B000AF78607B689B6BBB
:10281000DBB223F07F03DBB218460C37BD465DF810
:10282000047B704780B483B000AF786039607B6808
:102830003A68DA640C37BD465DF8047B704700BF28
:1028400080B586B000AFF860B9601346FB71102305
:102850007B61F86800F09EF8BB681B7A002B02D001
:10286000BB681B7A7B61FB79002B14D0BB681B799A
:10287000002B09D0BB681B681A467B69F8681146B3
:102880001A4600F033F906E0BB681B68F868194681
:102890007A6900F0B9F8BB68DB79013B5A007B69C3
:1028A0005B0801331B02134343F4403343F001033D
:1028B000FA68D363BB685B79013B1B0643F4817202
:1028C000FB685A63BB689B79002B09D0FB685A6B85
:1028D000BB689B79013B1B041A43FB685A6308E001
:1028E000FB685A6BBB685B79013B1B041A43FB68AE
:1028F0005A63FB684FF4A0629A63FB684FF0FF32A3
:10290000DA64BB685B891A46FB681A641837BD46EF
:1029100080BD00BF80B582B000AF78600B467B8081
:102920007B68D3F8083103F0E063002B10D100BFBF
:102930007868FFF767FF0346802BF9D078684FF47B
:102940000051FFF76FFF7A887B68C3F8802003E0AF
:102950007A887B68C3F880210837BD4680BD00BFF8
:1029600080B485B000AF78607B68D3F80C3103F099
:10297000E063002B03D17B685B6DFB8103E07B6828
:10298000D3F81C31FB81FB8918461437BD465DF82E
:10299000047B704780B582B000AF78607B68144AD2
:1029A000934203D07B68134A934203D1124800F04C
:1029B000DFF90AE07B68114A934203D07B68104A32
:1029C000934202D10F4800F0D3F97B680322DA600A
:1029D00000BF7B68DB6803F00103002BF9D07B6844
:1029E0001B6C23F00F027B681A640837BD4680BD5C
:1029F00000000340000203400800034000000248BA
:102A0000000202480800024880B58EB000AFF860AE
:102A1000B9607A60BB68632B5AD97B68002B57D0AA
:102A2000FEF7D4FC02462F4BA3FB02235B093B625B
:102A3000BB682C4AA2FB03235B09BB604FF4806395
:102A4000FB620123BB6240F2FF337B624FF4806381
:102A50003B6322E03B6A3A6B02FB03F2BB68796896
:102A600001FB03F3B2FBF3F3FB61FB699B0ABB6160
:102A7000FB69C3F309037B61BB69B3F5806F09D8B8
:102A80007A697B6A9A4205D27B697B62BB69BB62C9
:102A90003B6BFB623B6B013B3B633B6B002BD9D138
:102AA000FB6A013B43F40042FB681A61FB685A6908
:102AB0000D4B13407A68013A92021A43BB6A013BFC
:102AC0001B041A43FB685A61002387F8373002E081
:102AD000012387F8373097F8373018463837BD4626
:102AE00080BD00BF1F85EB51EF8000FC80B58CB02E
:102AF00000AFF860B9607A60FEF768FC03463B629D
:102B0000BB687A6802FB03F3FB610123FB623A6A4C
:102B1000FB699A425FDD3A6AFB6992FBF3F3BB62A1
:102B200010E0FB6A0133FB62BB687A6802FB03F3C7
:102B30001A46FB6A03FB02F3FB613A6AFB6992FBEC
:102B4000F3F3BB62BB6A40F2FE329342E9D83A6AC1
:102B50007B68B96A01FB03F3F96A01FB03F3B2FB7B
:102B6000F3F3BB613A6ABB6A0133796801FB03F393
:102B7000F96A01FB03F3B2FBF3F37B61BA687B698B
:102B8000D31A83EAE372A2EBE372B968BB69CB1A8A
:102B9000002BB8BF5B429A4202DABB6A0133BB62C8
:102BA000BB6AC3F58063BB62BB6A43F48042FB68C7
:102BB0001A61FB685A690C4B13407A68013A920219
:102BC0001A43FB6A013B1B041A43FB685A6100234A
:102BD00087F8273002E0012387F8273097F827305D
:102BE00018463037BD4680BDEF8000FC80B485B00C
:102BF00000AFF860B9603B601346FB71FB68D3F827
:102C0000083123F0E062FB68C3F80821FB68D3F8C1
:102C10000821094B13403A681102BA681143FA7946
:102C200012060A431A43FB68C3F808211437BD464D
:102C30005DF8047B704700BFC0C0FFF880B485B06A
:102C400000AFF860B9603B601346FB71FB68D3F8D6
:102C50000C3123F0E062FB68C3F80C21FB68D3F869
:102C60000C210A4B13403A681102BA681143FA79F1
:102C700012060A43134343F08052FB68C3F80C2149
:102C80001437BD465DF8047B704700BFC0C0FFEF3E
:102C900080B485B000AFF8600B467A60FB72FB68C9
:102CA000D3F80C3123F47C527B681B021A43FB6877
:102CB000C3F80C211437BD465DF8047B704700BF94
:102CC00080B485B000AFF8600B467A60FB72FB6899
:102CD0009A69FB7A072101FA03F3DB431A40FB7A76
:102CE000796801FA03F31A43FB689A611437BD4609
:102CF0005DF8047B704700BF80B485B000AFF8601A
:102D00000B467A60FB72FB68D3F80821FB7A072137
:102D100001FA03F3DB431A40FB7A796801FA03F303
:102D20001A43FB68C3F808211437BD465DF8047BDD
:102D3000704700BF80B485B000AFF8600B467A6082
:102D4000FB72FB68D3F80C21FB7A072101FA03F32D
:102D5000DB431A40FB7A796801FA03F31A43FB68F4
:102D6000C3F80C211437BD465DF8047B704700BFE3
:102D700080B582B000AF78607B681B4A934218D15F
:102D80004FF40060FEF752FC00BF4FF40060FEF706
:102D900069FC0346002BF8D14FF40060FEF7D6FA29
:102DA00000BF4FF40060FEF7EDFA0346002BF8D1A8
:102DB00017E07B680D4A934213D10D48FEF736FCAD
:102DC00000BF0B48FEF74EFC0346002BF9D1084824
:102DD000FEF7BCFA00BF0648FEF7D4FA0346002B04
:102DE000F9D10837BD4680BD0800034008000248FD
:102DF0008000001080B485B000AF786039603B7807
:102E0000C3F30203DBB21A467B88C3F309039BB208
:102E10001B041343FB607B68FA68C3F8F021FB785E
:102E2000C3F30013DBB21A07FB78C3F38103DBB2F1
:102E30009B061A43FB78C3F34013DBB25B071343D3
:102E4000FB60FB78C3F38013DBB29B07FA68134384
:102E5000FB607B68D3F8F021FB68134343F000422A
:102E60007B68C3F8F0211437BD465DF8047B7047DA
:102E700080B483B000AF78607B68D3F8843043F0CF
:102E800080627B68C3F884200C37BD465DF8047B04
:102E9000704700BF80B483B000AF78607B68D3F820
:102EA000843023F080627B68C3F884200C37BD46F1
:102EB0005DF8047B704700BF80B500AF0120FEF7CE
:102EC000B5FB0120FEF742FA80BD00BF80B582B09D
:102ED00000AF78603960FFF7EFFF3B685A697B68A5
:102EE0001A603B685B6843F400427B68C3F880204B
:102EF0003B689A687B68C3F8A0203B68DA687B6807
:102F0000C3F8A4203B681A697B68C3F880223B6839
:102F10001A687B68C3F8B8200837BD4680BD00BF7B
:102F200080B485B000AFF860B9603B601346FB71B8
:102F3000FB79002B09D1BA6840F21F731340FA687D
:102F40003968283142F8213007E0BA68054B134050
:102F5000FA683968283142F821301437BD465DF8E7
:102F6000047B704700001F0780B485B000AF786015
:102F70007B68D3F8803043F000427B68C3F8802040
:102F80000023FB7317E0FB7B0F4A52F82330BB6032
:102F9000BB68D3F8803003F44033002B08D000E046
:102FA00000BFBB68D3F8803003F08053002BF7D10B
:102FB000FB7B0133FB73FB7B012BE4D91437BD464C
:102FC0005DF8047B704700BF8860000880B485B05E
:102FD00000AF78600B46FB70FB78032B03D9FB78BE
:102FE000043BFB6001E0FB78FB607B68D3F8403179
:102FF00023F00F027B68C3F840217B68D3F840219F
:10300000FB681A437B68C3F840211437BD465DF85E
:10301000047B704780B582B000AF786039603B6850
:10302000786859680022002300F028F83B68786827
:1030300059680122002300F021F83B6878689968FC
:103040000022012300F01AF83B6878689968012291
:10305000012300F013F83B681A697B68C3F88020ED
:103060003B68DA687B68C3F8B8203B687868196801
:10307000FFF7C0FE0837BD4680BD00BF80B48DB0ED
:1030800000AFF860B9603B601346FB71FB79002B21
:1030900013D10823FB624FF4E0637B620023BB6221
:1030A0001F233B623B7AC3F30403DBB2FB617B7AF1
:1030B000C3F30203DBB2FB7613E01823FB624FF08D
:1030C000E0637B621023BB624FF4F8133B62BB7A70
:1030D000C3F30403DBB2FB61FB7AC3F30203DBB28D
:1030E000FB76FB683A68283253F822307B617B6AB2
:1030F000DB437A6913407B61FA7EFB6A02FA03F3D1
:103100007A6913437B613B6ADB437A6913407B61D5
:10311000BB6AFA6902FA03F37A6913437B61FB68BD
:103120003A682832796943F822103437BD465DF891
:10313000047B704780B485B000AF78600B46FB70AD
:103140007B68D3F88030FB60FB6823F00303FB60EF
:10315000FB78FA681343FB607B68FA68C3F8802049
:103160001437BD465DF8047B704700BF80B586B05C
:1031700000AF786039600023FB7509E0FB7D394AB8
:1031800052F823301846FFF785FEFB7D0133FB75AF
:10319000FB7D012BF2D900233B613B681B7803F0D8
:1031A0000303DBB2002B02D04FF400633B6100232A
:1031B000FB7521E0FB7D2B4A52F82330D3F8843095
:1031C000FB60FB6823F44073FB603B681B78C3F330
:1031D0008103DBB21B02FA681343FB60FA683B69A8
:1031E0001343FB60FB7D1F4A52F82330FA68C3F893
:1031F0008420FB7D0133FB75FB7D012BDAD93B6815
:103200005B6843F4000343F400437A68C2F8003279
:103210003B689B6843F001027B68C3F804223B686B
:103220001B7803F00303DBB2022B07D17B68D3F8D2
:10323000043243F480327B68C3F804220023FB7518
:1032400009E0FB7D074A52F823301846FFF710FECD
:10325000FB7D0133FB75FB7D012BF2D91837BD4691
:1032600080BD00BF8860000880B489B000AFF860FE
:10327000B9607A607B681B7BBB61FB68D3F88830E0
:103280007B61BB68012202FA03F3DB437A691340D6
:103290007B61BB68BA6902FA03F37A6913437B6105
:1032A000FB687A69C3F888207B685B7B5BB2002B84
:1032B00029DB0023FB61BB68012B0AD10823FB61DA
:1032C000FB68D3F8B03023F4F852FB68C3F8B020A1
:1032D0000CE0BB68002B09D10023FB61FB68D3F82D
:1032E000B03023F01F02FB68C3F8B020FB68D3F8AE
:1032F000B0307A68527B51B2FA6901FA02F21A438D
:10330000FB68C3F8B020FB68D3F8C8207B685B6813
:103310001A43FB68C3F8C820FB68D3F8D0207B6849
:103320009B681A43FB68C3F8D0207B681968FB6868
:10333000BA68803243F822102437BD465DF8047B1A
:10334000704700BF80B584B000AF7860144B1B6835
:10335000002B02D1124B134A1A60114B1B68FB6001
:103360007B68033323F003037B600D4B1A687B6893
:1033700013440D4A934207D2094B1A687B681344E1
:10338000074A1360FB6806E002F038F902460C2396
:1033900013604FF0FF3318461037BD4680BD00BFA5
:1033A00028CAFF1F00000020C05F002080B400AFCB
:1033B000BD465DF8047B704780B483B000AF786091
:1033C00039607B681A6C3B681A437B681A640C3757
:1033D000BD465DF8047B704780B483B000AF786071
:1033E00039607B681A6C3B68DB431A407B681A645F
:1033F0000C37BD465DF8047B704700BF80B483B0D6
:1034000000AF78607B689B6BDBB223F07F03DBB29D
:1034100018460C37BD465DF8047B704780B483B016
:1034200000AF786039603B684FF480329A407B6827
:103430009A660C37BD465DF8047B704780B483B054
:1034400000AF786039607B68D3F808213B681A4385
:103450007B68C3F808210C37BD465DF8047B7047D4
:1034600080B483B000AF786039607B68D3F80821FE
:103470003B68DB431A407B68C3F808210C37BD4624
:103480005DF8047B704700BF80B483B000AF786004
:103490007B684FF40042C3F818210C37BD465DF835
:1034A000047B704780B483B000AF78607B68D3F84A
:1034B000143103F48053002B14BF01230023DBB22B
:1034C00018460C37BD465DF8047B704780B483B066
:1034D00000AF78607B68D3F8143103F40063002BED
:1034E00014BF01230023DBB218460C37BD465DF83C
:1034F000047B704780B483B000AF786039607B682C
:10350000D3F80C213B681A437B68C3F80C210C37B5
:10351000BD465DF8047B704780B483B000AF78602F
:1035200039607B68D3F80C213B68DB431A407B6829
:10353000C3F80C210C37BD465DF8047B704700BF13
:1035400080B483B000AF78607B684FF48042C3F8EA
:1035500018210C37BD465DF8047B704780B483B0FA
:1035600000AF78607B68D3F8143103F00803002BB8
:1035700014BF01230023DBB218460C37BD465DF8AB
:10358000047B704780B584B000AF78600023FB7384
:103590007B685B685B6898470346FB73FB7B184658
:1035A0001037BD4680BD00BF80B586B000AFF86063
:1035B000B9607A600423FB75FB685B6893F8293077
:1035C000002B00D007E0F868B9687A6800F024F8AA
:1035D0000346FB7500BFFB7D18461837BD4680BD0E
:1035E00080B586B000AFF860B9607A600423FB75DF
:1035F000FB685B6893F82A30002B00D007E0F8687E
:10360000B9687A6800F064F80346FB7500BFFB7D7B
:1036100018461837BD4680BD80B586B000AFF8604B
:10362000B9607A600423FB75FB689B683B61FB68AB
:103630005B6893F82930002B44D10223FB753B696A
:103640001B7EDBB283F00103DBB2002B3AD0BB68F8
:10365000002B35D07B68002B32D03B69BA681A60EA
:103660003B697A689A603B690022DA603B69012213
:103670001A76FB685B6893F82B30002B0CD0FB6844
:103680001B681846FFF700FFFB681B6818464FF0E1
:103690008041FFF7D3FE06E0FB681B6818464FF435
:1036A0000051FFF789FE0023FB75FB681A68FB6871
:1036B0005B6893F82D3010461946FFF7AFFE01E026
:1036C0000323FB75FB7D18461837BD4680BD00BF40
:1036D00080B586B000AFF860B9607A600423FB75EE
:1036E000FB689B683B61FB685B6893F82A30002BA2
:1036F0003ED10223FB753B695B7EDBB283F00103A5
:10370000DBB2002B34D0BB68002B2FD07B68002BA2
:103710002CD03B69BA685A603B697A681A613B6988
:1037200001225A763B6900225A61FB685B6893F874
:103730002C30002B10D0FB681B681846FFF700FFE9
:10374000F868796800F030F9FB681B6818464FF09C
:10375000C041FFF7CFFE06E0FB681B6818464FF438
:103760004041FFF729FE0023FB7501E00323FB75B1
:10377000FB7D18461837BD4680BD00BF80B584B0BC
:1037800000AF78607B689B68FB60FB68DA68FB6869
:103790009B689A4240D27B685B6893F82B30002B81
:1037A00027D01AE0FB68DA68FB689B689A4212D25D
:1037B0007B681968FB681A68FB68DB6813441B7830
:1037C0009BB208461946FFF7A5F8FB68DB685A1C50
:1037D000FB68DA6001E000BF53E07B681B681846B5
:1037E000FFF760FE034683F00103DBB2002BD9D163
:1037F00047E07B681968FB681A68FB68DB6813445C
:103800001B789BB208461946FFF784F8FB68DB6813
:103810005A1CFB68DA6034E07B681B681846FFF7C7
:1038200055FE0346002B2CD07B685B6893F82B3049
:10383000002B07D07B681B6818464FF08041FFF7CC
:103840000FFE06E07B681B6818464FF40051FFF737
:10385000C3FD00BF7B681B681846FFF7CFFD03461A
:10386000802BF7D0FB6800221A76FB6800221A60D2
:103870007B685B689B68002B03D07B685B689B68F8
:1038800098471037BD4680BD90B585B000AF7860D1
:103890007B689B68FB607B685B6893F82C30002B2F
:1038A0004ED032E0FB685A69FB681B699A4211D21C
:1038B000FB685A68FB685B69D4187B681B6818460C
:1038C000FFF74EF80346DBB22370FB685B695A1CB6
:1038D000FB685A61FB685A69FB681B699A4214D1FC
:1038E000FB6800225A767B681B6818464FF0C0417F
:1038F000FFF712FE7B685B68DB68002B04D07B68F7
:103900005B68DB6898470BE00AE07B681B68184639
:10391000FFF724FE034683F00103DBB2002BC1D185
:10392000FB685A69FB681B699A423AD2FB681A69BC
:10393000FB685B69D31A7868194600F035F830E007
:10394000FB685A69FB681B699A4211D2FB685A6886
:10395000FB685B69D4187B681B681846FFF700F8A2
:103960000346DBB22370FB685B695A1CFB685A6133
:10397000FB685A69FB681B699A4212D1FB680022F6
:103980005A767B681B6818464FF44041FFF724FDC8
:103990007B685B68DB68002B03D07B685B68DB6857
:1039A00098471437BD4690BD80B584B000AF7860AD
:1039B00039600023FB607B685B6893F82C301A4603
:1039C00001239340BB603A68BB689A4203D23B68CC
:1039D000013BFB6002E0BB68013BFB607B681A684F
:1039E0007B685B6893F82C3010461946FA68FFF73D
:1039F0004FF91037BD4680BD80B400AF044BDB6883
:103A000003F4E0631B0A1846BD465DF8047B70476B
:103A100000ED00E080B483B000AF0346FB7197F97E
:103A20000730002B0BDB084997F907305B09FA795F
:103A300002F01F02012000FA02F241F823200C37A5
:103A4000BD465DF8047B704700E100E080B483B0C0
:103A500000AF03463960FB7197F90730002B0ADB92
:103A60000D4997F907303A68D2B29200D2B20B44AE
:103A700083F800230AE00949FB7903F00F03043BB4
:103A80003A68D2B29200D2B20B441A760C37BD46D5
:103A90005DF8047B704700BF00E100E000ED00E04E
:103AA00080B489B000AFF860B9607A60FB6803F059
:103AB0000703FB61FB69C3F10703062B28BF06233D
:103AC000BB61FB690633062B02D9FB69013B00E0B1
:103AD00000237B61BB69012202FA03F35A1EBB6813
:103AE0001A407B699A407B69012101FA03F3591E50
:103AF0007B680B40134318462437BD465DF8047BB2
:103B0000704700BF80B483B000AF78600B46FB7095
:103B10001346BB70F878FB787A6806339B00134431
:103B20005B6823F00702BB781A437968831D9B000A
:103B30000B445A600C37BD465DF8047B704700BFEC
:103B400080B582B000AF786039607868396801224A
:103B5000FEF776FE0837BD4680BD00BF80B483B057
:103B600000AF78607B681B6C23F00F0343F0020208
:103B70007B681A640C37BD465DF8047B704700BF54
:103B800080B582B000AF0023FB712D4804212D4A7F
:103B9000FDF76CFA2C482D49FFF7D2FF2A48002187
:103BA0000122FFF7AFFF2848302104220123FFF74D
:103BB0001DF82548202104220023FFF73FF8224862
:103BC000FFF7CCFF1E480521214AFDF74FFA1E489A
:103BD00010210022FFF774F81B4810210322FFF781
:103BE0008BF8194810210522FFF7A4F81648132175
:103BF0000522FFF79FF8FFF7FFFE034618463F2117
:103C00000022FFF74DFF034657201946FFF71EFF1E
:103C10005720FFF7FFFEFFF7EFFE034618463F2150
:103C20000022FFF73DFF034659201946FFF70EFF1C
:103C30005920FFF7EFFEFB7918460837BD4680BDD7
:103C400000810248E4600008000003409060000822
:103C50009C60000880B500AF0148FFF78FFD80BD74
:103C600010C8FF1F80B500AF0148FFF70DFE80BDF3
:103C700010C8FF1F80B483B000AF78600B46FB70A4
:103C8000FB7801229A407B68DA600C37BD465DF80C
:103C9000047B704780B483B000AF78607B680122FA
:103CA000DA600C37BD465DF8047B704780B483B0A2
:103CB00000AF78607B6802221A610C37BD465DF860
:103CC000047B704780B483B000AF78600B467B8084
:103CD0007A887B685A630C37BD465DF8047B704771
:103CE00080B483B000AF78600B467B807A887B68B5
:103CF000DA630C37BD465DF8047B704780B483B04F
:103D000000AF786039607B683A681A610C37BD464D
:103D10005DF8047B704700BF80B483B000AF78606B
:103D20000B46FB707B68D3F8A420FB78012101FAD5
:103D300003F31A437B68C3F8A4200C37BD465DF833
:103D4000047B704780B584B000AF78600023FB73BC
:103D50007B6893F8263083F00103DBB2002B09D097
:103D60007B6893F82130002B04D1786800F008F8C4
:103D70000346FB73FB7B18461037BD4680BD00BF72
:103D800080B584B000AF78607B681B69184600F08E
:103D900089FE0346FB737B681B699A687B681B7E00
:103DA00010461946FFF766FF7B685A697B68DB6936
:103DB00010461946FEF704FA786800F02DF87B6883
:103DC00093F82530002B0FD07B685A697B6893F8F5
:103DD0002030104600211A46FEF728FA7B685B69FE
:103DE00018460021FFF798FF7B685B691846FFF7CC
:103DF0005DFF7B68012283F826207B6893F82430DE
:103E0000002B04D07B685B691846FFF743FFFB7B00
:103E100018461037BD4680BD80B582B000AF7860CF
:103E20007B685A697B685B8C10461946FFF74AFF2E
:103E30007B685B6918460021FFF752FF7B681B69AE
:103E40009A687B68DB6810461946FFF757FF08370A
:103E5000BD4680BD80B400AF044BDB6803F4E06373
:103E60001B0A1846BD465DF8047B704700ED00E074
:103E700080B483B000AF0346FB7197F90730002B85
:103E80000BDB084997F907305B09FA7902F01F024A
:103E9000012000FA02F241F823200C37BD465DF8FC
:103EA000047B704700E100E080B483B000AF0346BC
:103EB000FB7197F90730002B0CDB094997F90730A4
:103EC0005B09FA7902F01F02012000FA02F2603366
:103ED00041F823200C37BD465DF8047B704700BFD6
:103EE00000E100E080B483B000AF03463960FB71AD
:103EF00097F90730002B0ADB0D4997F907303A682C
:103F0000D2B29200D2B20B4483F800230AE00949EE
:103F1000FB7903F00F03043B3A68D2B29200D2B2AD
:103F20000B441A760C37BD465DF8047B704700BF22
:103F300000E100E000ED00E080B489B000AFF8607F
:103F4000B9607A60FB6803F00703FB61FB69C3F1AA
:103F50000703062B28BF0623BB61FB690633062B2C
:103F600002D9FB69013B00E000237B61BB690122B0
:103F700002FA03F35A1EBB681A407B699A407B69B8
:103F8000012101FA03F3591E7B680B4013431846C5
:103F90002437BD465DF8047B704700BF90B583B001
:103FA00000AF78607B6859687B6893F821207B6854
:103FB0000833084611461A46FDF758F87B68196819
:103FC0007B68DA7F7B681433084611461A46FEF791
:103FD00091F97B681A687B6893F82030104619467F
:103FE0000122FEF7ADF97B681C7FFFF733FF014626
:103FF0007B685B7F1A467B689B7F084611461A46A2
:10400000FFF79AFF024663B218461146FFF76AFFB0
:104010007B6893F82230002B0BD07B681B7F5BB250
:104020001846FFF741FF7B681B7F5BB21846FFF71E
:104030001FFF002318460C37BD4690BD80B400AF6B
:10404000044BDB6803F4E0631B0A1846BD465DF8C9
:10405000047B704700ED00E080B483B000AF0346FE
:10406000FB7197F90730002B0BDB084997F90730F4
:104070005B09FA7902F01F02012000FA02F241F80E
:1040800023200C37BD465DF8047B704700E100E05B
:1040900080B483B000AF03463960FB7197F90730F5
:1040A000002B0ADB0D4997F907303A68D2B292002B
:1040B000D2B20B4483F800230AE00949FB7903F0EC
:1040C0000F03043B3A68D2B29200D2B20B441A7684
:1040D0000C37BD465DF8047B704700BF00E100E08F
:1040E00000ED00E080B489B000AFF860B9607A609C
:1040F000FB6803F00703FB61FB69C3F10703062BB1
:1041000028BF0623BB61FB690633062B02D9FB6976
:10411000013B00E000237B61BB69012202FA03F34B
:104120005A1EBB681A407B699A407B69012101FADB
:1041300003F3591E7B680B40134318462437BD46D2
:104140005DF8047B704700BF80B582B000AF786037
:104150007B681B785BB21846FFF77EFF0837BD46C9
:1041600080BD00BF90B583B000AF78607B681C78DD
:10417000FFF764FF01467B685B781A467B689B7893
:10418000084611461A46FFF7ADFF024663B21846CD
:104190001146FFF77DFF7B68DB78002B02D0786843
:1041A000FFF7D2FF002318460C37BD4690BD00BF75
:1041B00080B483B000AF78607B68D3F8143103F427
:1041C0008053002B14BF01230023DBB218460C37A9
:1041D000BD465DF8047B704780B483B000AF786063
:1041E0007B68D3F8143103F40063002B14BF012360
:1041F0000023DBB218460C37BD465DF8047B7047E0
:1042000080B483B000AF78607B68D3F8143103F0DA
:104210000803002B14BF01230023DBB218460C3720
:10422000BD465DF8047B704780B483B000AF786012
:104230007B689B6C18460C37BD465DF8047B704765
:1042400080B483B000AF786039607B68DA6C3B681B
:104250001A437B68DA640C37BD465DF8047B70470F
:1042600080B582B000AF78607B681B681846FFF7A6
:104270009FFF034618460837BD4680BD80B582B013
:1042800000AF78607B681B681846FFF7B9FF0346EC
:1042900018460837BD4680BD80B582B000AF786053
:1042A0007B681B681846FEF793FA034618460837E2
:1042B000BD4680BD80B582B000AF78600B46FB7014
:1042C0007B681A68FB7810461946FEF70FFA083724
:1042D000BD4680BD80B582B000AF78607B681B684A
:1042E0001846FEF729FA0837BD4680BD80B582B072
:1042F00000AF78607B681B681846FEF743FA083702
:10430000BD4680BD80B582B000AF78607B681B6819
:1043100018461021FFF794FF7B681B681846FEF7CC
:10432000BFF90837BD4680BD80B584B000AFF860E6
:10433000B9601346FB71FB681B6818460421FFF740
:104340007FFFFB681968BB689AB2FB790846114683
:104350001A46FEF73DF91037BD4680BD80B584B0E2
:1043600000AFF860B9601346FB71FB681B68184624
:104370000821FFF765FFFB681968BB689AB2FB79F3
:10438000084611461A46FEF757F91037BD4680BD5C
:1043900080B584B000AF78607B68002B06D07B6866
:1043A0005B685B6898470023FB7301E00123FB73A4
:1043B000FB7B18461037BD4680BD00BF80B584B07A
:1043C00000AF786039607B681B681846FFF72CFFE8
:1043D000F860FA683B68134018461037BD4680BD48
:1043E00080B582B000AF786039607B681B68184682
:1043F0003968FFF725FF0837BD4680BD80B588B016
:1044000002AFF8607A603B600B46FB720223FB75DB
:10441000FB685B6893F82430002B13D0FB685B6863
:1044200093F82430012B0DD0FA7A3B6A009397F869
:1044300024300193F86811467A683B6800F08CF8E4
:104440000346FB75FB7D18461837BD4680BD00BF8F
:1044500080B58AB004AFF8607A603B600B46FB72AF
:104460000223FB75FB685B6893F82530002B16D0A0
:10447000FB685B6893F82530012B10D0FA7A3B6A11
:10448000009397F82430019397F828300293F86846
:1044900011467A683B6800F029F90346FB75FB7DFD
:1044A00018461837BD4680BD80B584B000AFF860AF
:1044B000B9601346FB71FB681B6818460C21FFF7B7
:1044C000BFFEFB689B6893F82830DBB2002B09D055
:1044D000BB689BB21A46FB79F86811461A46FFF78B
:1044E0003DFF0DE0FB689B68012283F82820BB6834
:1044F0009BB21A46FB79F86811461A46FFF714FF7B
:104500001037BD4680BD00BF80B485B000AF786075
:104510000023FB737B685B6893F82430002B07D083
:104520007B685B6893F82430012B01D00123FB7377
:104530007B681B687A681268D26C42F00202DA6407
:104540007B681B6802229A66FB7B18461437BD46BF
:104550005DF8047B704700BF80B586B000AFF8609F
:104560007A603B600B46FB720223FB7400237B6185
:10457000FB7A83F00103DBB2002B09D0FB689B6858
:1045800093F82830DBB283F00103DBB2002B05D1B6
:104590003B68002B02D03B6A002B02D10123FB7445
:1045A0009EE0FB7A002B2CD0FB689B6893F82830A8
:1045B000DBB283F00103DBB2002B22D0F86879680C
:1045C0000022FFF771FF00BFF8684FF40871FFF792
:1045D000F5FE0346002BF7D0F8682021FFF7EEFE2A
:1045E0000346002B08D0F8682021FFF7F9FEF86891
:1045F000FFF78AFF012374E0F8684FF40071FFF7BA
:10460000EFFEFB685B6893F82630002B2ED128E084
:104610003A687B6913441B78F8681946FFF74AFE2D
:1046200000BFF8684FF40871FFF7C8FE0346002B7F
:10463000F7D0F8682021FFF7C1FE0346002B08D011
:10464000F8682021FFF7CCFEF868FFF75DFF012333
:1046500047E0F8684FF40071FFF7C2FE7B69013351
:104660007B617A693B6A9A42D2D32BE01AE010E070
:104670007A693B6A9A420BD23A687B6913441B7889
:10468000F8681946FFF716FE7B6901337B6100E08D
:1046900008E0F868FFF7E4FD034683F00103DBB2AE
:1046A000002BE5D17A693B6A9A42E0D300BFFB68F0
:1046B0001B681846FFF790FD034683F00103DBB249
:1046C000002BF4D197F82430002B07D0FB689B68AF
:1046D000002283F82820F868FFF714FE0023FB74FB
:1046E000FB7C18461837BD4680BD00BF90B589B029
:1046F00000AFF8607A603B600B46FB720223FB77E9
:10470000FB7A83F00103DBB2002B09D0FB689B68C6
:1047100093F82830DBB283F00103DBB2002B05D124
:104720003B68002B02D03B6B002B02D10123FB77AF
:10473000B8E00023BB6100237B61FB7A002B22D011
:10474000F86879680122FFF7AFFE00BFF8684FF400
:104750000871FFF733FE0346002BF7D0F8682021DD
:10476000FFF72CFE0346002B08D0F8682021FFF746
:1047700037FEF868FFF7C8FE012394E0F8684FF4AD
:104780000071FFF72DFEFB685B6893F82630002B65
:104790003AD134E0BB695A1C3B6B9A4207D197F877
:1047A0003830002B03D0F868FFF7A0FD02E0F8686E
:1047B000FFF790FD00BFF8684FF40041FFF7FEFDE2
:1047C0000346002B07D1F8684FF48041FFF7F6FD50
:1047D0000346002BEFD0F8684FF40041FFF700FECE
:1047E000F8684FF48041FFF7FBFDBB695A1CBA61C2
:1047F0003A68D418F868FFF74FFD03462370BA698A
:104800003B6B9A42C6D33FE0BB697B6138E018E05E
:104810007A693B6B9A4213D27B695A1C3B6B9A4272
:1048200007D197F83830002B03D0F868FFF75EFD0A
:1048300002E0F868FFF74EFD7B6901337B6100E021
:1048400008E0F868FFF70CFD034683F00103DBB2D4
:10485000002BDDD110E000BFF868FFF70FFD034625
:10486000002BF9D1BB695A1CBA613A68D418F868B0
:10487000FFF712FD03462370BA697B699A42EAD3B7
:104880007A693B6B9A42C2D397F83430002B07D039
:10489000FB689B68002283F82820F868FFF732FD48
:1048A0000023FB77FB7F18462437BD4690BD00BF31
:1048B00080B483B000AF78600B46FB701346BB70CA
:1048C000F878FB787A6806339B0013445B6823F022
:1048D0000702BB781A437968831D9B000B445A601A
:1048E0000C37BD465DF8047B704700BF80B483B0D1
:1048F00000AF78600B46FB70F878FB787A68063377
:104900009B0013445B6843F020027968831D9B0081
:104910000B445A600C37BD465DF8047B704700BFFE
:1049200080B483B000AF78600B46FB70F878FB78FA
:104930007A6806339B0013445B6843F04002796851
:10494000831D9B000B445A600C37BD465DF8047B09
:10495000704700BF80B483B000AF78600B46FB7037
:104960007B681B6C23F00F02FB781A437B681A6488
:104970000C37BD465DF8047B704700BF80B582B040
:1049800000AF78603960786839680122FDF778FDFA
:104990000837BD4680BD00BF80B582B000AF7860EB
:1049A00078680421FFF7D6FF0837BD4680BD00BFF9
:1049B00080B500AF054805210022FDF7DFFC044863
:1049C00000210022FDF7DAFC80BD00BF0082024812
:1049D0000083024880B500AFD023064805211A465F
:1049E000FDF7CCFCD023044800211A46FDF7C6FC95
:1049F00080BD00BF008202480083024880B500AF3E
:104A00001B481C49FFF7BAFF194800210122FFF794
:104A10004FFF174801210122FFF74AFF14480021E8
:104A2000FFF764FF12480021FFF77AFF10480121C9
:104A3000FFF75CFF0E480121FFF772FF0C481021C1
:104A400004220123FEF7D2F80948002104220F2393
:104A5000FEF7F4F80648FFF79FFF07480521074ACD
:104A6000FCF704FB06480021064AFCF7FFFA80BD6C
:104A7000000203403061000800820248186100080B
:104A8000008302482461000880B483B000AF7860DE
:104A90007B684FF48072DA600C37BD465DF8047BAA
:104AA000704700BF80B582B000AF78607B685B7BE9
:104AB00083F00103DBB2002B0FD07B689A687B6820
:104AC0001B7B10461946FDF75DFB7B689B6818460B
:104AD000FFF7DAFF7B6801225A7300231846083774
:104AE000BD4680BD80B584B000AF78600023FB7305
:104AF0007B685B7A83F00103DBB2002B0DD07B680F
:104B00005A687B681B68104601211A46FDF78AF92E
:104B10007B6801225A720023FB73FB7B1846103717
:104B2000BD4680BD80B483B000AF786039607B68DB
:104B3000D3F880203B681033194601238B401A4379
:104B40007B68C3F880200C37BD465DF8047B704756
:104B500080B584B000AF78607B681B7C022B49D1A4
:104B60007B68DA687B689B6810461946FEF7AEF9E9
:104B70000023FB602FE07B68FA6853F82230196845
:104B80007B68FA6853F822305B6808461946FEF7DE
:104B900041FA7B68FA6853F822301B6818460321F3
:104BA000FEF7C8FA7B68FA6853F822301B7A83F064
:104BB0000103DBB2002B05D07B68DB681846F9687F
:104BC000FFF7B0FF7B68FA6853F8223000225A7270
:104BD000FB680133FB60FB68012BCCD97B685B7CF5
:104BE000002B04D07B68DB681846FEF7BDF97B68B4
:104BF00000221A747B681B7C18461037BD4680BDA6
:104C000080B582B000AF78607B6819687B681A7CD9
:104C10007B680433084611461A46FCF727FA7B687E
:104C200019687B681A7C7B685B7C084611461A46CB
:104C3000FDF7E4FB002318460837BD4680BD00BFE2
:104C400080B485B000AF78607B6803F00703FB6039
:104C50000C4BDB68BB60BA684FF6FF031340BB60C8
:104C6000FB681A02BB68134343F0BF6343F400338D
:104C7000BB60044ABB68D3601437BD465DF8047B53
:104C8000704700BF00ED00E080B582B000AF0120AA
:104C9000FFF7D6FF72B6214B214A9A60BFF34F8FC0
:104CA00062B61E4A1D4BD3F8883043F47003C2F835
:104CB00088301C4B03F5805314331B687B607B6882
:104CC00023F00F037B607B6843F002037B60154B8E
:104CD00003F5805314337A681A60104A0F4B5B69EE
:104CE00023F0100353610D4A0C4B5B6923F008035A
:104CF00053610A4A094B5B6A23F480335362074AC3
:104D0000064B5B6A23F400335362044A034B5B6A2D
:104D100023F4802353620837BD4680BD00ED00E0D8
:104D2000000000080010005880B485B000AF786023
:104D30000023FB737B6801221A70FB7B1846143733
:104D4000BD465DF8047B704780B400AF024B184647
:104D5000BD465DF8047B7047001BB700B0B586B058
:104D600000AF114B3C1D1D460FCD0FC42B682360B7
:104D70003B1D1846FCF76EFA0020FCF793FB002061
:104D8000FCF748FB0420FCF719FCFCF78FFC012022
:104D90002021FCF79BFC0020FCF750FB0120FCF7D6
:104DA00021FC1837BD46B0BDB861000880B485B09D
:104DB00000AFF8600B467A60FB72FB689A68FB7A7A
:104DC000072101FA03F3DB431A40FB7A796801FA01
:104DD00003F31A43FB689A601437BD465DF8047B01
:104DE000704700BF80B483B000AF78600B46FB70A3
:104DF0007B68DB6823F00702FB7803F007031A43A4
:104E00007B68DA600C37BD465DF8047B704700BFF5
:104E100080B483B000AF78607B68DB6843F4807255
:104E20007B68DA600C37BD465DF8047B704700BFD5
:104E300080B483B000AF78607B681B6843F04002A9
:104E40007B681A600C37BD465DF8047B704700BF75
:104E500080B483B000AF78607B681B6823F04002A9
:104E60007B681A600C37BD465DF8047B704700BF55
:104E700080B483B000AF78607B681B6843F00102A8
:104E80007B681A600C37BD465DF8047B704700BF35
:104E900080B483B000AF78607B681B6823F00102A8
:104EA0007B681A600C37BD465DF8047B704700BF15
:104EB00080B483B000AF78607B681B6823F0800209
:104EC0007B681A600C37BD465DF8047B704700BFF5
:104ED00080B485B000AFF8600B467A60FB72FB6867
:104EE0001B68FA6812689168FA7A072000FA02F2E1
:104EF000D2431140FA7A786800FA02F20A439A60C3
:104F00001437BD465DF8047B704700BF80B483B0A2
:104F100000AF786039607B681B687A681268116836
:104F20003A680A431A600C37BD465DF8047B704747
:104F300080B582B000AF78607B681B6818464FF47C
:104F40000031FFF7E3FF0837BD4680BD80B582B072
:104F500000AF78607B681B6818464FF48031FFF71C
:104F6000D5FF0837BD4680BD80B584B000AF7860FE
:104F70000023FB60786800F031F87B6893F8A43078
:104F8000002B03D0FB6843F00203FB607B6893F8BF
:104F9000A330002B03D0FB6843F00403FB607B6865
:104FA00093F8A530002B03D0FB6843F00803FB60A7
:104FB0007B685B681846F968FDF776F87B6893F8BC
:104FC000A630002B06D07B685B6818464FF4800142
:104FD000FDF76AF81037BD4680BD00BF80B582B0CE
:104FE00000AF78607B685A687B68D3F88C301B7898
:104FF000104600211A46FFF7D9FE7B685A687B6885
:10500000D3F88C305B78104604211A46FFF7CEFEA9
:105010007B685A687B68D3F88C309B7810460821EF
:105020001A46FFF7C3FE7B685A687B68D3F88C305A
:10503000DB7810460C211A46FFF7B8FE0837BD464C
:1050400080BD00BF80B582B000AF78607B681B6810
:105050001846FCF727FF7B68DB79002B0BD07B68B9
:105060001A687B685B79104604211A46FFF730FF07
:105070007868FFF75DFF7B681B7A002B0BD07B689D
:105080001A687B689B79104600211A46FFF720FFBB
:105090007868FFF75BFF0837BD4680BD80B584B0F8
:1050A00000AF78600023FB737B681B681846FCF731
:1050B000CDFF0346FB73FB7B18461037BD4680BD12
:1050C00080B586B000AF78600023FB757B68D3F8AD
:1050D0009030FB607B681B681846FFF703FD0346B2
:1050E000FB75FB7D002B40F087807B685A687B68EE
:1050F0009B6810461946FCF799FD0346002B78D1B2
:105100007B685B681846FFF793FE7B685B68184610
:10511000FFF7AEFE7B685B681846FFF7C9FE7B6849
:1051200093F8A730002B05D07B685B681846FFF723
:105130006FFE18E07B68D3F8983019687B68D3F865
:1051400098301A797B68D3F89C30084611461A4685
:10515000FBF78CFF7B685A687B6893F8A030104699
:105160001946FFF73FFE7868FFF7FEFE00233B611C
:1051700019E07A683B6902339B0013445B68BB60AB
:105180007B681B6859687B6893F8A120BB681B7912
:10519000084611461A46FCF7F1FDB868FFF752FFC2
:1051A0003B6901333B617B6893F8A2301A463B6947
:1051B0009A42DED87B685B681846FFF749FE7B6839
:1051C0005B681846FFF764FE7B6893F8A73083F0AE
:1051D0000103DBB2002B11D0FB681968FB681A7958
:1051E0007B68D3F89430084611461A46FBF73EFF19
:1051F00004E00123FB7501E00123FB75FB7D1846EC
:105200001837BD4680BD00BF80B400AF044BDB68DB
:1052100003F4E0631B0A1846BD465DF8047B704743
:1052200000ED00E080B483B000AF0346FB7197F956
:105230000730002B0BDB084997F907305B09FA7937
:1052400002F01F02012000FA02F241F823200C377D
:10525000BD465DF8047B704700E100E080B483B098
:1052600000AF03463960FB7197F90730002B0ADB6A
:105270000D4997F907303A68D2B29200D2B20B4486
:1052800083F800230AE00949FB7903F00F03043B8C
:105290003A68D2B29200D2B20B441A760C37BD46AD
:1052A0005DF8047B704700BF00E100E000ED00E026
:1052B00080B489B000AFF860B9607A60FB6803F031
:1052C0000703FB61FB69C3F10703062B28BF062315
:1052D000BB61FB690633062B02D9FB69013B00E089
:1052E00000237B61BB69012202FA03F35A1EBB68EB
:1052F0001A407B699A407B69012101FA03F3591E28
:105300007B680B40134318462437BD465DF8047B89
:10531000704700BF80B483B000AF78607B68D3F87B
:10532000043243F400727B68C3F804220C37BD4694
:105330005DF8047B704700BF80B485B000AFF860B3
:10534000B9607A60FB68BA68603253F822207B68E3
:10535000012101FA03F342EA0301FB68BA686032F3
:1053600043F822101437BD465DF8047B704700BF38
:1053700080B485B000AFF860B9607A607B68196866
:10538000FB68BA68A03243F822101437BD465DF8B6
:10539000047B704780B483B000AF786039607B686D
:1053A0003A68C03253F822309BB218460C37BD46DB
:1053B0005DF8047B704700BF90B585B000AF7860A2
:1053C0007B681B7E022B40F099807B68DB68184667
:1053D000FFF7BEFB0346BB737B68DB68DA687B685C
:1053E0009B681046196800220023FDF799FD7B6831
:1053F000DB68DA687B685B6810461946FDF7B6FE25
:105400000023FB732EE07B681B68FA7B53F8223085
:10541000BB60BB689A68BB685B7B1946BB681B684E
:1054200010461A46FDF720FFBB689A68BB681B68E8
:105430009B78C3F30303DBB21946BB685B68104675
:105440001A46FFF795FF7B68DB68DA68BB681B7B51
:105450001946BB685B7B10461A46FFF76DFFFB7B66
:105460000133FB73FB7B002BCDD07B685B681B7A21
:1054700003F00803DBB2002B2CD07B681B69002BE8
:1054800028D07B681B691B68DCB2FFF7BDFE0146B4
:105490007B681B695A687B681B699B6808461146D4
:1054A0001A46FFF705FF024663B218461146FFF79A
:1054B000D5FE7B68DB68DA687B685B7E1046194640
:1054C000FDF784FD7B681B691B68DBB25BB2184685
:1054D000FFF7A8FE7B685B69002B02D07B685B69E5
:1054E00098477B689B7E002B05D07B68DB68DB6878
:1054F0001846FFF70FFF7B68BA7B1A767B681B7E26
:1055000018461437BD4690BD80B584B000AF7860B2
:105510007B689A687B681B689B78C3F30303DBB2E4
:1055200010461946FFF736FF0346FB81FB891846F4
:105530001037BD4680BD00BF80B582B000AF0023EC
:10554000FB712548FFF7F0FB0346FB71FB79002B4D
:1055500004D12248FFF754FB0346FB71FB79002B73
:1055600004D11F48FEF7EEFB0346FB71FB79002BCD
:1055700004D11C48FEF7F6FD0346FB71FB79002BB6
:1055800004D11948FDF7FEFF0346FB71FB79002BA0
:1055900004D11648FEF702FD0346FB71FB79002B90
:1055A00004D11348FFF708FF0346FB71FB79002B7A
:1055B00004D11048FEF7ECFE0346FB71FB79002B8B
:1055C00004D10D48FFF77CFD0346FB71FB791846BB
:1055D0000837BD4680BD00BF74CAFF1FA461000824
:1055E00024C8FF1F1461000810C8FF1FF0600008E6
:1055F00004C9FF1F4CC8FF1F1C620008014B18683C
:10560000704700BF80C9FF1F70B50E4B0E4CE41AE7
:10561000A41000251E46A54204D056F82530984710
:105620000135F8E7FDF7C2FE084C094BE41AA41057
:1056300000251E46A54204D056F82530984701356E
:10564000F8E770BD84C9FF1F84C9FF1F84C9FF1F0D
:1056500084C9FF1F10B5431E0A44914204D011F8BB
:10566000014B03F8014FF8E710BD00000CB430B552
:10567000164B0C1E9DB01D6804DA8B232B604FF077
:10568000FF301EE04FF40273ADF8143014BF04F184
:10569000FF332346049307934FF6FF73029006905F
:1056A000ADF81630284621AB02A9209A019300F0EC
:1056B00095F8431CBCBF8B232B6014B1029B0022C6
:1056C0001A701DB0BDE8304002B0704780C9FF1F9E
:1056D0000EB400B59CB04FF40271ADF814106FF029
:1056E0000041049107914FF6FF711DABADF8161004
:1056F000084953F8042B029006900868019302A908
:1057000000F06CF8029B00221A701CB05DF804EBEC
:1057100003B0704780C9FF1F034613F8012B002A0E
:10572000FBD1181A013870472DE9F0478E68B34253
:1057300082460C469046994640D38A8912F4906F6F
:105740003AD0256809696F1A6569022305EB45059A
:1057500095FBF3F57B1C4B449D4238BF1D4653051A
:105760000FD5294600F02AFB064698B121693A4632
:10577000FFF770FFA38923F4906343F08003A381B4
:1057800013E02A4600F070FB064670B950462169C6
:1057900000F0D0FA0C23CAF80030A38943F040038C
:1057A000A3814FF0FF30BDE8F087266165613E447C
:1057B000ED1B2660A5604E46B14500D24E463246EE
:1057C0002068414600F09BFAA3689B1BA3602368F6
:1057D0001E4426600020BDE8F08700002DE9F0435C
:1057E0009DB0064603938B891C060D4690460CD54A
:1057F0000B6953B9402100F0E1FA2860286110B923
:105800000C233360CCE040236B61002309932023F9
:105810008DF8293030238DF82A3043461C4613F882
:10582000012B1AB9B4EB08090FD002E0252AF5D1F3
:10583000F8E73046294642464B46FFF775FF0130F0
:1058400000F0A980099B4B4409932378002B00F0BA
:10585000A28000234FF0FF32049307930592069332
:105860008DF853301A9304F101084446DFF848914B
:1058700021784846052200F033FA08F10108049B1C
:1058800030B1C9EB00000122824013430493ECE7DE
:10589000D80644BF20228DF85320190744BF2B227D
:1058A0008DF8532022782A2A02D0079923460EE049
:1058B000039A111D12680391002ABBBF524243F0A4
:1058C000020307920792B8BF049301340AE01C4612
:1058D00001332278303A092A03D80A2000FB01213B
:1058E000F5E7079123782E2B1AD163782A2B0AD15A
:1058F000039B1A1D1B680392002BB8BF4FF0FF33A8
:10590000023405930CE0611C00220C46013123781F
:10591000303B092B03D80A2000FB0232F5E7059241
:10592000DFF8988021784046032200F0D9F938B199
:10593000049AC8EB000040238340134304930134CE
:1059400021781A488DF82810062204F1010800F089
:10595000C7F988B1164B33B9039B073323F007030C
:105960000833039313E003AB0093304604A92A469F
:10597000104BAFF3008007E003AB0093304604A95F
:105980002A460C4B00F092F8421C074603D0099BB4
:105990003B44099341E7AB895B0601D4099801E0D8
:1059A0004FF0FF301DB0BDE8F08300BFE06200089B
:1059B0000000000029570008D6620008DC620008D9
:1059C0002DE9F84391461F468A680B69DDF820806F
:1059D0009342B8BF1346C9F8003091F843200646F9
:1059E0000C4612B10133C9F800302368990642BF52
:1059F000D9F800300233C9F80030256815F00605E3
:105A00001CD094F843302268003318BF012392065B
:105A10001FD5E1185A1C302081F84300224494F825
:105A2000451082F84310023313E03046394604F142
:105A300019020123C047013007D00135E368D9F8C6
:105A400000209B1A9D42F0DBDBE74FF0FF30BDE802
:105A5000F8833046394604F14302C0470130F4D0A0
:105A60002268D9F80050E36802F00602042A08BF51
:105A70005D1B2269A3680CBF25EAE57500259342EA
:105A8000C4BF9B1AED184FF00009A9450ADA304649
:105A9000394604F11A020123C0470130D5D009F17B
:105AA0000109F2E70020BDE8F88300002DE9FF417D
:105AB0000C461746227E6E2A984606460A9B01F13E
:105AC000430100F0A98012D8632A23D00AD8002A03
:105AD00000F0B680582A40F0C58084F84520DFF8F1
