:020000040C00EE
:1000000000C8FF1F010200089102000891020008C9
:10001000910200089102000891020008000000000F
:100020000000000000000000000000009102000835
:1000300091020008000000009102000891020008EF
:100040009102000891020008910200089102000844
:100050009102000835090008910200089102000889
:1000600091020008000000000000000000000000F5
:1000700091020008000000009102000891020008AF
:100080009102000891020008910200089102000804
:1000900091020008910200089102000891020008F4
:1000A000910200089102000800000000000000001A
:1000B0000000000000000000000000000000000040
:1000C0000000000000000000000000000000000030
:1000D0000000000000000000000000000000000020
:1000E00000000000000000009102000891020008DA
:1000F0009102000891020008910200089102000894
:10010000910200080D090008910200089102000800
:1001100000000000000000000000000000000000DF
:1001200000000000000000000000000000000000CF
:100130009102000891020008910200089102000853
:1001400000000000000000000000000000000000AF
:100150009102000891020008000000000000000069
:100160009102000891020008910200089102000823
:100170009102000891020008910200089102000813
:100180009102000891020008910200089102000803
:10019000910200089102000891020008B1210008B4
:1001A00091020008BD210008D5210008C9210008DE
:1001B00091020008910200089102000891020008D3
:1001C000000000000000000000000000000000002F
:1001D0000000000000000000910200080000000084
:1001E000910200089102000800000000910200083E
:1001F00000000000000000000000000000000000FF
:10020000DFF86CD01B4880471B4C1C4DAC4209DA10
:1002100021686268A368043BA2BFC858D050FAE7BF
:100220000C34F3E7164B174CA34208DA19685A68E6
:100230000020043AA4BF8850FBE70833F4E71248D3
:100240008047124880470000C839000C00C8FF1FD3
:1002500094010000C839000C00C8FF1F0000000016
:1002600094C9FF1F1C0100000000002000000000D6
:1002700000C8FF1F390C000848020008600200088F
:100280006002000870020008412C000839090008CB
:10029000FEE7000008B5034802F082FC024B18801C
:1002A00008BD00BF0CC9FF1F94C9FF1F014B188870
:1002B000704700BF94C9FF1F7FB5BA238DF80B307C
:1002C000164B17481A889B78ADF80C2001218DF841
:1002D0000E3000910DF10B030191702202F0A7F88E
:1002E00000230493049A0F4B9A4202D8049B0133D3
:1002F000F7E7032301210093019103AB0848702223
:1003000002F095F800230593059A064B9A4202D80D
:10031000059B0133F7E707B05DF804FB20350008C3
:1003200058C8FF1FDF93040030B5364B36481A8893
:100330009B7889B001218DF812300323ADF810208D
:1003400000930191702204AB02F071F808B1002013
:1003500055E00A2500230593059A2C4B9A4202D8B2
:10036000059B0133F7E7012406238DE8180002946A
:1003700025482146702206AB02F0DDF80028E6D1C0
:100380009DF91830013D002BEDB202DA002DE1D1CC
:10039000DDE7002DDBD09DF81B509DF81C309DF84B
:1003A0001D209FED1B7ADFED1B6A1B4842EA0322EA
:1003B00005F00F0142EA01419DF819209DF81A301D
:1003C0000472120342EA031343EA151307EE903A4C
:1003D000F8EEE77A67EE877A9FED107A67EEA67AF5
:1003E000C0ED017A07EE901AF8EEE77A67EE877AA9
:1003F0009FED0B7AA7EEA67A80ED007A204609B031
:1004000030BD00BF2335000858C8FF1F8FD0030040
:100410000000C8420000803598C9FF1F0000484313
:10042000000048C208B500F035FA00F0A7FAFFF75F
:1004300043FF00F04BF9BDE8084000F01BB808B5D9
:10044000FFF728FF00F0A0FB00F0F2F900F092F8AF
:10045000BDE8084000F02AB810B5044602F078FC68
:1004600021460246BDE81040014801F0E8BC00BF4B
:100470001CC8FF1F0148FFF7EFBF00BF263500086B
:10048000332808B50AD1022000F0F2F9054800F03F
:10049000F5F90548BDE80840FFF7DEBFBDE80840B4
:1004A00000F072BA353500083E35000838B5074C03
:1004B00007482146012201F0FCFC054620B92078BE
:1004C00010B1FFF7DDFF257038BD00BFA4C9FF1FC5
:1004D0001CC8FF1F014B01221A707047A8C9FF1FDB
:1004E000024B1A78024B33F81200704700C8FF1F06
:1004F00052350008044A13780133DBB2132B88BF4E
:1005000000231370704700BF00C8FF1F034A137811
:100510000BB9132300E0013B1370704700C8FF1FA5
:10052000134B10B51C6923681A735A6860F31C02D8
:100530005A608A784878120442EA00220878024316
:10054000C87842EA00621A618A794879120442EA5C
:1005500000220879C979024342EA016220465A61C1
:1005600002F0C4F92046BDE8104002F0E2B900BF35
:10057000D038000807B5204B1A78CAB300221A7089
:10058000FFF7D2FE1D4A9FED1E7AD2ED007A77EE7C
:10059000877AB2EE047A67EE877AFDEEE77A17EE95
:1005A000903AD2ED017A8DF8003067EE877A191211
:1005B000FCEEE77A8DF8011017EE902A19141B163D
:1005C0008DF80330130A8DF80530130C8DF80630C2
:1005D0000C4B8DF80420120E8DF807201A780A4B68
:1005E0008DF8021033F8120069460822FFF798FFD1
:1005F00003B05DF804FB00BFA8C9FF1F98C9FF1F27
:1006000000005C4200C8FF1F523500081FB500F013
:10061000F003000143F00C02C0B243F008038DF870
:10062000093040F00C038DF80A3040F00800042334
:1006300001218DF808208DF80B000093019102AB89
:1006400008484E2201F0F3FE00230393039A44F678
:100650001F639A4202D8039B0133F6E705B05DF8A9
:1006600004FB00BF58C8FF1F1FB500F0F0030001D6
:1006700043F00D02C0B243F009038DF8093040F099
:100680000D038DF80A3040F00900042301218DF894
:1006900008208DF80B000093019102AB08484E2210
:1006A00001F0C5FE00230393039A44F61F639A42A8
:1006B00002D8039B0133F6E705B05DF804FB00BFE9
:1006C00058C8FF1F0120FFF7A1BF000007B5332066
:1006D000FFF79CFF3220FFF799FF2820FFF796FFD6
:1006E0000C20FFF793FF0120FFF790FF0620FFF794
:1006F0008DFF074B01221A7000230193019A054BCD
:100700009A4202D8019B0133F7E703B05DF804FB7E
:10071000B0C9FF1FDF93040013B5441E14F8010F86
:1007200058B1FFF7A1FF00230193019A41F28733EB
:100730009A42F3D8019B0133F6E702B010BD0000E6
:100740001E4B9FED1F7AD3ED007A67EE877A70B566
:10075000FDEEE77A86B017EE904AD3ED017A67EEA8
:10076000877A8020FDEEE77A642517EE906AFFF71E
:100770004DFF8020FFF74AFF94FBF5F205FB124383
:10078000002BB8BF5B420F4901A802F0BDFA01A8D7
:10079000FFF7C2FFC020FFF739FF96FBF5F205FB1C
:1007A0001263002B0849B8BF5B4201A802F0ACFA03
:1007B00001A8FFF7B1FF06B070BD00BF98C9FF1FC9
:1007C0000000C8427A350008883500087FB58020CF
:1007D000FFF71CFF104B11491A8801A892B202F0D2
:1007E00093FA01A8FFF798FFC020FFF70FFF0C4B0B
:1007F0001B780BB10B4809E08020FFF707FF0A4880
:10080000FFF78AFFC020FFF701FF0848FFF784FFCA
:1008100007B05DF804FB00BFA6C9FF1F97350008AD
:10082000A5C9FF1F9F350008A6350008AD35000893
:100830000B4A0C49136801338B4201D8136070478F
:1008400000231360084B1B7A4BB1084B1B7813B184
:10085000012B02D07047FFF773BFFFF7B7BF704798
:10086000ACC9FF1F1FA1070098C9FF1FB0C9FF1F18
:10087000014B1870704700BFB0C9FF1F10B5044688
:10088000FFF720FF8020FFF7C1FE2046BDE81040A3
:10089000FFF742BF044B01221A704FF4FA725A60FC
:1008A00000229A60704700BF04C8FF1F094B1A78E6
:1008B00072B19A68596864328A429A6008D3064ACB
:1008C000107C11684FF0011282404A6000229A6049
:1008D000704700BF04C8FF1F64380008064A137839
:1008E000B3FA83F35B0913702BB9044B197C1A68B4
:1008F00001238B405360704704C8FF1F6438000811
:10090000014B5860704700BF04C8FF1F08B5FFF7D0
:10091000CDFF074A13780133DBB2042B01D81370E3
:1009200008BD00231370BDE80840FFF7D3BD00BF2A
:10093000B1C9FF1FFFF7D2BF08B502F03BF900B104
:10094000FEE7FFF76FFDFFF77AFDFCE710B5044601
:1009500002F0FEF921460246064801F070FA2046F0
:1009600002F0F6F921460246BDE81040024801F0C7
:1009700066BA00BF10C8FF1F1CC8FF1F0148FFF761
:10098000E5BF00BFB835000830B52B2887B003D1CC
:100990006C4C6068643007E02D280CD1694B5868B6
:1009A00064281C4602D96438FFF7AAFF6648674AE4
:1009B0006368802113E06C280AD1FFF78FFF614B39
:1009C0001B780BB1624800E06248FFF7BFFFB2E05E
:1009D000622808D15B4B5C485C4A5B68802102F06E
:1009E00061F95948F1E7612808D1FFF75FFC8021E0
:1009F0000346594A544802F055F985E074281CD141
:100A0000FFF792FCB8B1554B9FED557AD3ED007AC4
:100A10004D4867EE877A6422FDEEE77A17EE901A6A
:100A200091FBF2F302FB1312002AB8BF524200926C
:100A300080214C4A66E04C487EE068281BD1FFF7D5
:100A400073FC0028F7D0454B9FED457AD3ED017A32
:100A50003D4867EE877A6422FDEEE77A17EE901A3A
:100A600091FBF2F302FB1312002AB8BF524200922C
:100A700080213E4A46E0632831D1FFF755FC374BD1
:100A8000DFED376A93ED007A27EE267AFDEEC77A1E
:100A900017EE905AD3ED017A67EEA67AFDEEE77A6B
:100AA00017EE904AFFF71CFD03460090642095FB6B
:100AB000F0F1019100FB115194FBF0F20029039237
:100AC00000FB1242B8BF4942002AB8BF524202910D
:100AD00004928021264A1C4802F0E4F814E06E28B3
:100AE00002D1FFF707FD03E070280FD1FFF70EFDDD
:100AF000FFF7F6FC0446FFF7F3FC1E4A009012488D
:100B00008021234602F0CEF80F4815E0312804D1A9
:100B10000020FFF7ADFE18480EE0322804D1012076
:100B2000FFF7A6FE154807E0332804D10220FFF79F
:100B30009FFE134800E0134807B0BDE83040FFF7C0
:100B400005BF00BF04C8FF1FB3C9FF1FE63500087B
:100B5000F7350008083600081336000898C9FF1F4B
:100B60000000C8421E36000831360008643600080E
:100B70003E3600087736000896360008AB36000887
:100B80003E350008B836000838B5074C07482146FE
:100B9000012201F08EF9054620B9207810B1FFF747
:100BA000F3FE257038BD00BFB2C9FF1F10C8FF1F7C
:100BB0001D4BDB68D90310B525D51C4BDA6812F044
:100BC000010F1C4602D101F069FE00E018482268BE
:100BD000164B520710D59A6899689B68C2F3036256
:100BE000C3F30644531C04FB0333B0FBF3F0C1F31F
:100BF000062303FB000007E09B6803F07F0301333B
:100C0000B0FBF3F000E00A48074AD368DBB20133D7
:100C1000B0FBF3F0136903F001030133B0FBF3F011
:100C2000044B186010BD00BF004600501047005034
:100C300000366E01C05F002038B50B4A0B4D4FF0F7
:100C40000054234603CBAB42106051601C4602F1B6
:100C50000802F6D1064A074B07CA83E8070001F0ED
:100C6000DDFD01F01FFE38BDC45F00201000002034
:100C700084000020D45F002008B5074B984209D1BA
:100C80004FF4803000F014F94FF48030BDE8084094
:100C900000F05AB808BD00BF0040044001F0FC035A
:100CA0000344F0B501F003041E69E400F825A540F3
:100CB00026EA05051D61466F4F000325BD4026EA63
:100CC00005054567144DA84207D1056E012606FAB1
:100CD00001F125EA0101016618E092F90050002DAA
:100CE00014DA55688D404560CD0800EB850001F0B1
:100CF0000701066C890007258D4026EA0505056475
:100D0000167A056C06FA01F1294301641278196913
:100D1000A2400A431A61F0BD008E024810B5044695
:100D2000FFF746FF064B07481B68B3FBF0F303FBD6
:100D300004F00023834202D000BF0133FAE710BD64
:100D4000C05F002040420F0020F070420C23000FD3
:100D50005843014BC250704714440050020F0C23FB
:100D60005343044A9B5820F07040184214BF01209E
:100D7000002070470C440050034B044A5B69106824
:100D800003F00103D840704700460050C05F0020C8
:100D9000034AD36823F480331843D060704700BF00
:100DA00000460050034A936923F48033184390614E
:100DB000704700BF00460050034A536A23F4403393
:100DC00018435062704700BF00460050064AD3687F
:100DD00020B923F4807323F0010303E043F480730C
:100DE00043F00103D360704710470050054BD3F820
:100DF000C4301B07FAD4044AD36823F040031843D5
:100E0000D06070470040005000430050054BD3F8BD
:100E1000C4301B07FAD4044AD36823F08003184374
:100E2000D06070470040005000430050034AD36830
:100E3000013823F0FF030343D3607047004600509E
:100E4000034A136A013823F0010303431362704716
:100E500000460050034A1369013823F0010303439D
:100E60001361704700460050034A5369013823F06C
:100E7000010303435361704700460050034A9369DE
:100E8000013823F007030343936170470046005085
:100E9000034A536A013823F0FF0303435362704748
:100EA00000460050014B5860704700BF004600509C
:100EB00020F070420C23000F5843014BC250704782
:100EC00048460050020F0C235343044A9B5820F01D
:100ED0007040184214BF0120002070474046005067
:100EE000034A536923F4803323F0020353617047AC
:100EF00010470050194A536943F0010310B553617C
:100F00001469164BE407FBD55C690138013900060A
:100F100040EA012044F010045C615861596941F0D5
:100F200040015961596921F010015961596941F431
:100F300080215961136909495807FBD54B6923F092
:100F400001034B6113690549DB07FBD44B6923F0AF
:100F500040034B61024B0822DA6010BD104700507D
:100F60006041005010B50B4C6368012843F48013B6
:100F700063600AD1636823F4801363606420FFF721
:100F8000CDFE636843F4002363606420BDE8104035
:100F9000FFF7C4BE104700500A4B1A68D20704D5A9
:100FA000094B1A68900506D4704701225A601A68E6
:100FB000D107FCD5F4E74FF400729A601A689205E5
:100FC000FCD470470042005000440050034B1868A6
:100FD00080F00800C0F3C000704700BF004300501D
:100FE000104B4FF40002DA600F4AD16921F0300152
:100FF000D16159680802FCD50A494FF40030C86035
:10100000082151605A689103FCD5064A4FF400212B
:10101000D1600549CA6842F00802CA605A681203E2
:10102000FCD57047744000500043005070B50C4D23
:101030000C4E6B6823F480336B60746801F02EFCF7
:10104000094BB0FBF3F024F47023013823F0300394
:1010500043EA004373606B6823F400336B6070BD38
:101060001047005000470050A0252600044B186888
:1010700000F46070A0F5607358425841704700BF9B
:1010800010470050034A536823F4803323F00203CF
:101090005360704710470050034A536843F480334D
:1010A00043F002035360704710470050064B9A68A4
:1010B000013822F4FE0242EA00429A601A6892065F
:1010C000FCD53220FFF72ABE104700502DE9F04131
:1010D0000F46044690461E46069DFFF777FE012FF9
:1010E000364F55D134B901F0D9FB354CB0FBF4F093
:1010F000800501E04FF0C0607B6843F0010370435E
:101100001822B0FBF8F47B60B4FBF2F2920D3B685E
:101110002A49DB07FBD54B6843F010034B60886816
:10112000284B08F1FF38034043EA0863013E43EAD5
:101130000623013A43EA02438B604B6843F04003C5
:101140004B604B6823F010034B604B6843F48023E3
:101150004B603B68194A5E07FBD5536823F00103D7
:1011600053603B68D807FCD43C20B4FBF0F0800D02
:10117000854201D2FFF79AFF5A20B4FBF0F0800DB0
:10118000854201D2FFF792FF2846FFF78FFF10E05C
:10119000BB68013D23F07F031D43BD603B68074AE8
:1011A000D906FBD5536843F0010353603B68DB0766
:1011B000FCD5054B0522DA60BDE8F08110470050F0
:1011C00040420F00FF8080F06041005037B5044678
:1011D0000020FFF7DDFDFFF7DFFEE3791BB9607A42
:1011E000FFF714FE06E0FFF7FBFEFFF7EFFE002817
:1011F000FBD0F4E71C4BD3F8C430002BFAD1207A93
:10120000FFF7B0FE207CFFF711FE607CFFF722FEA7
:10121000A07CFFF715FEE07CFFF726FEA37913B94B
:10122000E3783BB10BE0FFF701FFFFF71FFF00285A
:10123000FBD0F5E7A37963B9FFF72EFF09E0FFF7CD
:1012400021FFA578A088E178627823780095FFF7E0
:101250003DFFE068B0F5803F01D1FFF799FD03B095
:10126000BDE83040FFF7A4BC0040005091E80C00FE
:10127000F0B5B2FBF3FE03FB1E231BBB18277A1C41
:10128000BEFBF2F402FB14E6CEB9631EB3F5007F99
:1012900015D23F2C02D9630711D101260B8942F2E6
:1012A00010757B43B3FBF5F3DD1E0C2D07D8D21A66
:1012B000D51E042D03D84D89013AAA4204D2013F1C
:1012C000062FDCD10120F0BD013A013D1203AD0132
:1012D000EDB202F4E0422A4342EAC632013B06EB99
:1012E0004606F4401B02016803F47063013C1A4394
:1012F00004F03F0441F040012243016002610368B1
:1013000023F0400303600020F0BDD0F8C43113F493
:10131000407FFAD1120442F00202013142EA016137
:10132000C0F8C4117047000010B504460648FFF726
:10133000BFFD0548FFF708FD236823F00103236084
:1013400023689B07FCD410BD1000001038B505467B
:101350001446FFF7E9FFFFF70FFDB0FBF4F2C2F50B
:101360008062002A38BF002240F2FF339A4228BF31
:101370001A46EB6823F4434323F0FF03EB60EB686A
:1013800043F480431343EB60C2F58062B0FBF2F09C
:1013900038BD0000037E012B14D103682022DA61DE
:1013A0000368017B1A68090601F0706122F070621F
:1013B0000A431A6002691A6142695A61024ADA6193
:1013C00000207047032070474000280002689168A1
:1013D00002F1384321F47F4110B5A3F5A8339160A1
:1013E0009168DB0023F0FF030B439360037E012B26
:1013F000044628D82023D361C379426813F0200F14
:1014000008BF02F06041036803BF41EA82429A616B
:1014100081689A6106BF01F0604242EA81428268B7
:10142000DA60027E012A08D1FFF7B4FF23684FF08B
:101430000062DA612368044A04E04FF40062DA6172
:101440000368024ADA6110BDC00020064006A00011
:101450000368D969DA69890606D5D20506D44FF042
:10146000E062DA6100207047042070470220704774
:10147000B1F5800F15BF03688369194343F48003F6
:1014800014BF01608361704710B504461020FFF758
:1014900009FD0A4B9C4204D10420FFF709FD0420FA
:1014A00006E0074B9C4207D10820FFF701FD08200A
:1014B000BDE81040FFF748BC10BD00BF00C00040B1
:1014C0000000014038B504460D46FFF7DDFF4FF43C
:1014D0008073E360236823F4404343EA853121604D
:1014E00038BD0B6843614B79C3F340131B05436060
:1014F0000B7903F00F0343624B7903F00F03036290
:101500004B79C3F3001383610B791B09C3627047E6
:101510000B2910B50DD8074B5C56074B33F811104B
:1015200039B1D0F8A830A24023EA01031A43C0F829
:10153000A82010BDCB360008D836000870B5054687
:101540000C461646FFF798FB2868A2000F2393402D
:1015500020EA0301336893400B432B600434736823
:1015600045F8243070BD083102F0030250F82130F4
:1015700023F0300343EA021240F82120704701F0C3
:10158000FC03184401F0030110B5C9000469F823F5
:101590008B4024EA0303036103698A401343036118
:1015A00010BD436F490010B503248C4023EA0403A7
:1015B0004367436F8A401343436710BD01F4F84308
:1015C000B3F5F04F0CBFC26BC36B10B501BF130C6A
:1015D000CCB21B04490013BF1B0C01F47E41234312
:1015E0001B040CBF194343EA0121C16310BD000075
:1015F00030B5104DA94208D8C46B24F40034C4633C
:101600000AB10A220AE00A220DE00B4DA9420ED8C7
:10161000C46B44F40034C46322B11922BDE83040E5
:1016200000F062B91922BDE8304000F01DB9012078
:1016300030BD00BFA0860100801A060070B50446C8
:101640000D46164600F014FA0A4B63632046E988FB
:10165000FFF7B4FF26B1204629682A79FFF7C8FFB3
:101660004FF4A063A3634FF0FF33E36400232364CC
:1016700070BD00BF03033F07D0F80831012A41F4D1
:10168000806108BF41F0010113F0E06F09D1836B65
:101690001B06FCD4C36C43F40053C364C0F8801031
:1016A0007047C0F880117047D0F80831012A41F422
:1016B000A06108BF41F0010113F0E06F09D1836B15
:1016C0001B06FCD4C36C43F40053C364C0F8801001
:1016D0007047C0F880117047D0F8083113F0E06F00
:1016E0000BD1836B1B06FCD4C36C43F40053C3645F
:1016F0004FF4C063C0F8803070474FF4C063C0F847
:1017000080317047D0F8083113F0E06F09D1836B56
:101710001B06FCD4C36C43F40053C364C0F88010B0
:101720007047C0F880117047D0F8083113F0E06FAF
:101730000BD1836B1B06FCD4C36C43F40053C3640E
:101740004FF40073C0F8803070474FF40073C0F856
:1017500080317047D0F8083113F0E06F0BD1836B04
:101760001B06FCD4C36C43F40053C3644FF44073B2
:10177000C0F8803070474FF44073C0F88031704734
:10178000D0F80C3113F0E06F0CBF406DD0F81C01A5
:10179000C0B27047F8B50E460446174600F068F927
:1017A000357A002D08BF10254FB1337931682046B6
:1017B0002A4613B100F098F801E000F055F8F379EB
:1017C000013B5B0043F440336D0843F001030135F6
:1017D00043EA0523E3637379013B1B0643F48173FA
:1017E0006363B379626B03B97379013B42EA0343E4
:1017F00063634FF4A063A3634FF0FF33E364738923
:101800002364F8BDD0F8083113F0E06F08D1836B82
:101810001B06FCD44FF40053C364C0F8801070471B
:10182000C0F880117047D0F80C3113F0E06F0CBF96
:10183000406DD0F81C0180B2704708B54FF40060CD
:10184000FFF736FB4FF40060FFF73CFB0028F9D1AF
:101850004FF40060FFF778FA4FF40060FFF77EFA6C
:101860000028F9D108BD000063292DE9F0410546A3
:101870000C46164632D98AB3FFF77EFA6421B0FBD4
:10188000F1FEB4FBF1F14FF4806471434FEA8E2313
:1018900040F2FF3C01272046B3FBF1F24FEA9228C9
:1018A000B8F5806F06D8C2F3090262453EBF944680
:1018B000474604460138CEEB0303EDD1013C44F426
:1018C00000442C616A69074B013E134043EA8623BA
:1018D000013F43EA07436B61BDE8F0810120BDE8A9
:1018E000F08100BFEF8000FC2DE9F0410F469046EB
:1018F0000546FFF741FA08FB07F2904237DD90FBFF
:10190000F2F35100012640F2FE34A34204D990FBC9
:10191000F1F301361144F6E75A1C08FB06F406FB06
:1019200003F15443B0FBF4F43C1B002C08FB01F121
:10193000B0FBF1F0A7EB0007B8BF6442002FB8BFBF
:101940007F42BC42B8BF1346C3F5806343F4804373
:101950002B616A69074B08F1FF38134043EA88237B
:10196000013E43EA06436B610020BDE8F08101209F
:10197000BDE8F081EF8000FC30B5D0F8084124F0DC
:10198000E064C0F80841D0F80851054C2C402143D0
:1019900041EA026242EA0323C0F8083130BD00BFC9
:1019A000C0C0FFF830B5D0F80C4124F0E064C0F8B6
:1019B0000C41D0F80C51064C2C4044F0805421438B
:1019C00041EA026242EA0323C0F80C3130BD00BF95
:1019D000C0C0FFEFD0F80C3123F47C5343EA02225D
:1019E000C0F80C21704710B5072384698B4024EAA6
:1019F00003038A401A43826110BD10B50723D0F853
:101A000008418B4024EA03038A401A43C0F80821A6
:101A100010BD10B50723D0F80C418B4024EA030316
:101A20008A401A43C0F80C2110BD000008B50D4BC8
:101A3000984203D1BDE80840FFF7FFBE0A4B984229
:101A40000FD10A48FFF734FA0848FFF73BFA00289D
:101A5000FAD10648FFF778F90448FFF77FF9002824
:101A6000FAD108BD080003400800024880000010B9
:101A70000F4B984210B5044603D003F5007398420B
:101A800002D1FFF7DAFE09E00A4B984203D003F5D2
:101A90000073984202D10848FFF7C8FF0323E360B0
:101AA000E368DB07FCD5236C23F00F03236410BD30
:101AB00000000340000002480800024808B5012069
:101AC000FFF7F6F90120BDE80840FFF73DB938B54A
:101AD0000D460446FFF7F2FF6B6923606B6843F421
:101AE0000043C4F88030AB68C4F8A030EB68C4F899
:101AF000A4302B69C4F880322B68C4F8B83038BDE4
:101B0000283312B940F21F7200E0024A0A4040F83E
:101B10002320704700001F07D0F8803043F00043B7
:101B2000C0F880300C4BD3F8802012F4403F05D031
:101B3000D3F88020D10001D500BFF9E7074BD3F8D7
:101B4000802012F4403F05D0D3F88020D20001D588
:101B500000BFF9E7704700BF004400400048004064
:101B6000D0F8403123F00F03C0F840310329D0F8FA
:101B7000403188BF04391943C0F840117047F0B5AF
:101B800042B901F01F051F26C1F302214FF4E06E98
:101B9000082709E0C1F304454FF4F816C1F30261C8
:101BA0004FF0E06E1022182700EB8303B940D3F802
:101BB000A04024EA0E04214321EA0601954029436E
:101BC000C3F8A010F0BDF8B500220C460546134638
:101BD0004968FFF7D4FF2846616801220023FFF718
:101BE000CEFF2846A16800220123FFF7C8FF01228B
:101BF00013462846A168FFF7C2FF2369E178C5F8BC
:101C00008030E368C5F8B830C1F30012C1F3810336
:101C1000C1F34017C1F380106188C1F30906217830
:101C200001F0070141EA0641C5F8F011D5F8F011BD
:101C300041F0004141EA027242EA836242EA47739C
:101C400043EA8073C5F8F031F8BDD0F8803023F056
:101C500003031943C0F8801070470000F0B5254F0A
:101C6000D7F8843023F08063C7F88430224BD3F850
:101C7000842022F08062C3F884200A78D7F8844058
:101C800012F00305C2F381024FEA022224F44074E9
:101C90000CBF00264FF4006614433443C7F8844059
:101CA000D3F8844024F4407422433243C3F88420A0
:101CB0004A6842F4000242F40042C0F800228A68F6
:101CC0000C4942F00102C0F80422022D02BFD0F8F4
:101CD000042242F48032C0F80422D1F8842042F079
:101CE0008062C1F88420D3F8842042F08062C3F877
:101CF0008420F0BD004400400048004030B501237E
:101D0000D0F888508B4025EA0304137B8B40234393
:101D1000C0F8883092F90D30002B19DB012907D16A
:101D2000D0F8B03023F4F853C0F8B030082507E0FD
:101D300029B9D0F8B03023F01F03C0F8B030002527
:101D400092F90D30D0F8B040AB402343C0F8B0302A
:101D5000D0F8C84053682343C0F8C830D0F8D0400A
:101D600093682343C0F8D0308031136840F82130A5
:101D700030BD000008B50C4B1A680AB90B4A1A604E
:101D80001A680B49C31C23F0030313448B4203D28C
:101D9000054910460B6008BD00F04CFF0C230360A2
:101DA0004FF0FF3008BD00BF34CAFF1F0000002005
:101DB000C05F002070474368006893F82C30012210
:101DC0009A40914234BF01F1FF3202F1FF321946CD
:101DD000FFF700BE43685B68184770B544688368C6
:101DE00094F829502DBB1D7E05F0FF061DBB21B3C5
:101DF0001AB39A6001221A7694F82B201960DE60DB
:101E0000036852B14FF40042C3F81821D3F80821F7
:101E100042F08042C3F8082103E01A6C42F40052F9
:101E20001A6494F82D104FF480328A409A6600208C
:101E300070BD042070BD022070BD032070BD4368DA
:101E400093F829300BB9FFF7C8BF04207047F8B5E5
:101E50004568836895F82A60044626BB5F7E07F0D4
:101E6000FF0617BB19B312B3596001211A615976E5
:101E70005E6195F82C3005687BB14FF48043C5F85E
:101E800018311146FFF797FF2268D2F80C3143F062
:101E9000C043C2F80C313046F8BD2A6C42F44042CF
:101EA0002A641846F8BD0420F8BD0220F8BD0320BE
:101EB000F8BD436893F82A300BB9FFF7C8BF042078
:101EC000704770B58468E368A268934205461ED2E5
:101ED000426892F82B208AB12868D0F81431DE04C9
:101EE0000BD4E368A268934230D22268D15CFFF73A
:101EF00089FCE3680133E360EEE770BD22680068A7
:101F0000D15CFFF77FFCE3680133E36070BD0368D9
:101F1000D3F81421110519D5416891F82B2032B15D
:101F2000D3F8082122F08042C3F8082103E01A6C9C
:101F300022F400521A649A6B1206FCD40023237612
:101F400023608B6813B1BDE87040184770BD4368CB
:101F500093F82C302DE9F0410546846853B3286886
:101F6000D0F814311B071BD4666923699E4206D240
:101F70006768FFF758FCB8556369013363616269AC
:101F800023699A42EBD100232A686376D2F80C3198
:101F900023F0C043C2F80C316B68DB6803B198478B
:101FA000636921698B4222D22846C91ABDE8F041F3
:101FB000FFF701BF666923699E4207D20068676820
:101FC000FFF731FCB85563690133636162692369C6
:101FD0009A420CD100232A686376136C23F44043A1
:101FE00013646B68DB6813B1BDE8F0411847BDE8C6
:101FF000F08100F00700C0F10702062A28BF062280
:1020000000B1013801239340013B03FA00F070470F
:1020100038B52C4D2C4C2D4A28460F21FEF73EFE9C
:1020200020462B490122FFF7B5FBE36923F00703A4
:1020300043F00203E3612046102104220123FFF74D
:102040009BFC002120460B460422FFF7ABFC236CCF
:10205000204A23F00F0343F00203236428460E2195
:10206000FEF71CFE204610210222FFF7BCFC204692
:1020700010210122FFF7C1FC174D2046102100223C
:10208000FFF7C7FC204613210022FFF7C2FCE868D7
:10209000124CC0F30220FFF7ACFF8000C0B284F8FE
:1020A0005B034FF00063A360E868C0F30220FFF712
:1020B000A0FF8000C0B284F85A034FF08063A36091
:1020C000002038BD0082024800000248F0360008B7
:1020D000383700089837000800ED00E000E100E024
:1020E00038B52C4D2C4C2D4A28460421FEF7D6FD40
:1020F00020462B490122FFF74DFBE36923F007033C
:1021000043F00103E3612046302104220123FFF75D
:1021100033FC2046202104220023FFF743FC236CDC
:10212000204A23F00F0343F00203236428460521CD
:10213000FEF7B4FD204610210022FFF754FC204694
:1021400010210322FFF759FC174D204610210522CC
:10215000FFF75FFC204613210522FFF75AFCE868D1
:10216000124CC0F30220FFF744FF8000C0B284F895
:1021700057034FF40003A360E868C0F30220FFF7A1
:1021800038FF8000C0B284F859034FF00073A36099
:10219000002038BD0081024800000340FC360008E2
:1021A000A43700085C37000800ED00E000E100E023
:1021B0000148FFF786BE00BF10C8FF1F0148FFF7A8
:1021C000C6BE00BF10C8FF1F0148FFF77ABE00BFA0
:1021D0001CC8FF1F0148FFF7BABE00BF1CC8FF1F85
:1021E0004369428C5A630022DA630369C2689B68C0
:1021F0001A61704738B50446006900F0B3FA2369E4
:10220000217E9A6801238B40D360E16905466069AD
:10221000FFF767F92046FFF7E3FF94F8253063B135
:1022200094F8202060690021FFF772F96269D2F802
:10223000A43043F00103C2F8A430636994F8241079
:1022400002221A61012284F8262001B1DA602846B0
:1022500038BD90F8262022B990F821300BB9FFF74D
:10226000C9BF002070470000F8B5044604F1080219
:10227000406894F82110FEF711FD2068E17F04F119
:102280001402FFF75BF994F8201020680122FFF791
:102290006AF9224B257FD968627FA77FC1F30221AB
:1022A000C1F1070EBEF1060F28BF4FF0060E01B1B7
:1022B0000139012000FA01F3013B00FA0EF003EAB4
:1022C0000706431E13408B406AB2002A43EA060306
:1022D0004FEA8303AFBF02F1604205F00F05104AD9
:1022E000DBB2A5BF02F56142DBB2535582F8003381
:1022F00094F8223083B1227F53B2002B0CDB5B09B0
:102300009B0003F1604302F01F0103F561430122CA
:102310008A40C3F880211A600020F8BD00ED00E07B
:1023200014ED00E0204BF0B5D96805784278877845
:10233000C1F30221C1F1070EBEF1060F28BF4FF015
:10234000060E01B10139012404FA01F3013B04FA3C
:102350000EF403EA0706631E13408B406AB2002A9C
:1023600043EA06034FEA8303AFBF02F1604205F080
:102370000F050E4ADBB2A5BF02F56142DBB2535531
:1023800082F80033C37863B1027853B2002B08DBC4
:10239000012102F01F0201FA02F25B09044941F82F
:1023A00023200020F0BD00BF00ED00E014ED00E0B0
:1023B00000E100E010B504460068C36C43F00C0374
:1023C000C364A36893F8284089B23CB1C36C43F05E
:1023D0000803C364BDE81040FFF766B9012483F821
:1023E0002840C36C43F00403C364BDE81040FFF70A
:1023F00043B908B520B143685B689847002008BD21
:10240000012008BD0268D36C1943D164704743684A
:1024100093F824100368DA6C42F00202DA640129AE
:102420004FF002029A6694BF0020012070472DE908
:10243000F8431D464368089F93F824309DF8248094
:10244000012B0446164670D921B9836893F82830C9
:10245000002B6DD0002D6BD0002F69D0F1B1A36897
:1024600093F8283003F0FF02C3B920463146FFF746
:10247000A1FF23689A6C12F4087FFBD09B6C98062E
:1024800007D520462021FFF7BDFF2046FFF7BFFFFD
:102490004EE020464FF40071FFF7B4FF636893F8F5
:1024A00026300BBB2F44BD4217D0206815F8011B06
:1024B000FFF728F923689A6C12F4087FFBD09B6C15
:1024C0009906DED420464FF40071FFF79BFFEAE740
:1024D0002268D2F814311B05FBD50025B8F1000F96
:1024E00016D14046BDE8F8830023BB42F0D2EE1877
:1024F00005EB07092068D0F81421D204A6EB0503E8
:10250000F3D44E45F1D016F8011BFFF7FBF8F1E7C5
:10251000A368206883F82850C36C43F01003C36499
:10252000FFF7DAF82846BDE8F8830220BDE8F88313
:102530000120BDE8F8832DE9F74F1E4643680C9F44
:1025400093F825309DF834909DF838A0012B04466F
:1025500040F28F8029B9836893F82830002B00F06F
:102560008A80002E00F08780002F00F08480C1B1A7
:10257000114620460122FFF71DFF23689A6C12F4D2
:10258000087FFBD09B6C9906204606D52021FFF7DB
:1025900039FF2046FFF73BFF6DE04FF40071FFF776
:1025A00031FF636893F8265055BB013E0135BD42AB
:1025B000206805D1BAF1000F02D0FFF7CBF801E097
:1025C000FFF7B2F823689A6C120402D49A6C500494
:1025D000F9D520464FF40041FFF714FF20464FF491
:1025E0008041FFF70FFF2068FFF7CAF8BD4206F8E9
:1025F000010FDBD10025B9F1000F2ED148463BE099
:102600004FF00008C346B845F4D245462068D0F8DC
:102610001431D90401D4BD4203D3A84606EB0B0301
:1026200017E00135BD4205D1BAF1000F02D0FFF726
:1026300091F8EBE7FFF778F8E8E7D0F814211207F4
:10264000FBD40193FFF79CF8019B03F8010B0BF1FE
:10265000010BAB45D7D22068EFE7A368206883F869
:102660002850C36C43F01003C364FFF735F82846C5
:1026700002E0022000E0012003B0BDE8F08F00007E
:1026800008B5064805210022FEF779FF002104481D
:102690000A46BDE80840FEF772BF00BF008202484C
:1026A0000083024808B506480521D022FEF767FFDF
:1026B00004480021D022BDE80840FEF760BF00BFFB
:1026C000008202480083024810B5204C2049204671
:1026D0000122FEF7B3FFE36923F0070343F0010390
:1026E000E361236A23F0070343F001032362E369F4
:1026F00043F02003E361E36943F04003E361236AAD
:1027000043F020032362236A43F040032362204600
:10271000102104220123FFF72FF920460021042273
:102720000F23FFF73FF9236C0A480B4A23F00F03EE
:1027300043F0040323640521FEF7B0FA0748084A72
:102740000021BDE81040FEF7A9BA00BF0002034017
:102750001C38000800820248D8370008008302486D
:10276000E4370008437B10B504464BB98068217BF1
:10277000FEF7A8FEA3684FF48072DA60012363734A
:10278000002010BD437A10B5044633B94068226872
:102790000121FEF7DBFD01236372002010BDF8B5B7
:1027A000037C022B044629D1C068A168FFF78FF98A
:1027B000261F002756F8043F93E80300FFF703FAAB
:1027C000336803211868FFF740FA31680B7A4BB978
:1027D000E06807F11005D0F880200123AB401343D7
:1027E000C0F8803000234B721D460FB90127E1E786
:1027F000637C13B1E068FFF78FF92574207CF8BD86
:1028000010B50446221D217C0068FEF747FA2068B7
:10281000217C627CFEF7C5FE002010BD194B1A4AD0
:10282000D96821F4E0610904090C0A43DA6072B640
:10283000164A9A60BFF34F8F62B6D3F888201448C7
:1028400042F4700241F21401C3F88820425822F089
:102850000F0242F0020242505A6922F010025A61FD
:102860005A6922F008025A615A6A22F480325A6286
:102870005A6A22F400325A625A6A22F480225A6258
:10288000704700BF00ED00E00001FA0500000008FD
:102890000010005801230370002070470048704763
:1028A000001BB70030B5104D0FCD87B001AC0FC481
:1028B0002B68236001A8FEF789FC0020FEF796FA3A
:1028C0000020FEF76FFA0420FEF7D8FAFEF708FBA7
:1028D00020210120FEF70EFB0020FEF76DFA0120FB
:1028E000FEF7D6FA07B030BD7838000810B50446B8
:1028F0000068FEF76BFDE37963B1236861791A68BC
:10290000936823F0700343EA01139360136843F460
:1029100000331360237A5BB123681B689A6822F046
:102920000701A2790A439A601A6842F480321A6059
:1029300010BD0068FEF78CBD2DE9F843D0F890601B
:1029400004460068FFF71EFF054608B101258CE02C
:102950006068A168FEF78AFC0028F7D163681A68EE
:1029600042F040021A601A6842F001021A601A68C6
:1029700022F080021A6094F8A72022B1DA6842F4AB
:102980008072DA6011E0D4F89830D4F89C2019797C
:102990001868FEF783F9616894F8A020CB6802F00C
:1029A000070223F007031343CB606068D4F88C2040
:1029B000836823F0070113780B43836083685178A1
:1029C00023F0700343EA011383608368917823F452
:1029D000E06343EA012383608368D27823F4E04311
:1029E00043EA0233836094F8A430002B94F8A330B8
:1029F0000CBF002102210BB141F0040194F8A53075
:102A00000BB141F00801FEF733FD94F8A63023B175
:102A100060684FF48001FEF72BFD04F108080027E1
:102A200094F8A2309F420ED258F8049F236894F87D
:102A3000A110586899F80420FEF767FC4846FFF794
:102A400055FF0137ECE763681A6822F040021A600C
:102A50001A6822F001021A6094F8A7302BB9306886
:102A60003179D4F89420FEF719F92846BDE8F883A7
:102A7000F8B5037E022B044640F08A80C068FFF759
:102A80008EFEE268A3680546D068196800221346E6
:102A9000FFF736F8E3686168D868FFF7DFF8236866
:102AA0001E68B068717B3268FFF728F93368716877
:102AB0009B78B268096803F00F03A03342F8231033
:102AC000E368327BDB68707B03EB82030122D3F87F
:102AD000801182400A43C3F8802163681B7A1B0778
:102AE00048D52369002B45D02A4A1E68D1685A6808
:102AF0009B68C1F30221C1F1070CBCF1060FF7B2CC
:102B000028BF4FF0060C09B1481E00E0084601211D
:102B100001FA00FE0EF1FF3E01FA0CF10EEA030E7F
:102B20004B1E134083407AB2002A4EEA03034FEA59
:102B30008303ADBF02F16042174A06F00F0602F5AB
:102B40006142B9BFDBB29355DBB282F80033E36870
:102B5000617ED868FFF704F823691A6853B2002B26
:102B600008DB012102F01F0201FA02F25B090B49A6
:102B700041F82320636903B19847A37E3BB1E36822
:102B8000DA68D2F8043243F40073C2F804322576CE
:102B9000207EF8BD00ED00E014ED00E000E100E073
:102BA000036882689B7803F00F03C03352F8230058
:102BB00080B2704708B51548FFF76CFE20BB14487B
:102BC000FFF71EFE00BB1348FFF743FBE0B91248B6
:102BD000FFF7A8FBC0B91148FFF7FCF8A0B91048EF
:102BE000FFF742FB80B90F48FFF742FF60B90E487C
:102BF000FFF7FFFB40B90D48FFF79EFE20B90C48D8
:102C0000BDE80840FFF7E6B808BD00BF9CCAFF1F3B
:102C10006438000828C8FF1FD437000810C8FF1FF9
:102C2000B0370008F0C8FF1F58C8FF1FD038000891
:102C30001CC8FF1F014B1868704700BF90C9FF1FD9
:102C400070B50E4B0E4CE41AA41000251E46A5428A
:102C500004D056F8253098470135F8E7FFF7AAF871
:102C6000084C094BE41AA41000251E46A54204D0C6
:102C700056F8253098470135F8E770BD94C9FF1F15
:102C800094C9FF1F94C9FF1F94C9FF1F10B5431EAD
:102C90000A44914204D011F8014B03F8014FF8E7C0
:102CA00010BD00000CB430B5164B0C1E9DB01D6855
:102CB00004DA8B232B604FF0FF301EE04FF40273D9
:102CC000ADF8143014BF04F1FF3323460493079387
:102CD0004FF6FF7302900690ADF81630284621ABF0
:102CE00002A9209A019300F095F8431CBCBF8B23E6
:102CF0002B6014B1029B00221A701DB0BDE8304059
:102D000002B0704790C9FF1F0EB400B59CB04FF4DD
:102D10000271ADF814106FF00041049107914FF665
:102D2000FF711DABADF81610084953F8042B029043
:102D300006900868019302A900F06CF8029B00223B
:102D40001A701CB05DF804EB03B0704790C9FF1F08
:102D5000034613F8012B002AFBD1181A01387047DB
:102D60002DE9F0478E68B34282460C46904699465C
:102D700040D38A8912F4906F3AD0256809696F1A96
:102D80006569022305EB450595FBF3F57B1C4B4478
:102D90009D4238BF1D4653050FD5294600F02AFB3A
:102DA000064698B121693A46FFF770FFA38923F4DC
:102DB000906343F08003A38113E02A4600F070FB88
:102DC000064670B95046216900F0D0FA0C23CAF8C3
:102DD0000030A38943F04003A3814FF0FF30BDE8EA
:102DE000F087266165613E44ED1B2660A5604E4676
:102DF000B14500D24E4632462068414600F09BFA6B
:102E0000A3689B1BA36023681E4426600020BDE8C6
:102E1000F08700002DE9F0439DB0064603938B89AF
:102E20001C060D4690460CD50B6953B9402100F0A5
:102E3000E1FA2860286110B90C233360CCE040230C
:102E40006B610023099320238DF8293030238DF8FE
:102E50002A3043461C4613F8012B1AB9B4EB080973
:102E60000FD002E0252AF5D1F8E730462946424640
:102E70004B46FFF775FF013000F0A980099B4B44DA
:102E800009932378002B00F0A28000234FF0FF323B
:102E900004930793059206938DF853301A9304F127
:102EA00001084446DFF8489121784846052200F0A1
:102EB00033FA08F10108049B30B1C9EB000001228C
:102EC000824013430493ECE7D80644BF20228DF8D8
:102ED0005320190744BF2B228DF8532022782A2A29
:102EE00002D0079923460EE0039A111D1268039140
:102EF000002ABBBF524243F0020307920792B8BFB9
:102F0000049301340AE01C4601332278303A092A3E
:102F100003D80A2000FB0121F5E7079123782E2B27
:102F20001AD163782A2B0AD1039B1A1D1B680392BE
:102F3000002BB8BF4FF0FF33023405930CE0611C47
:102F400000220C4601312378303B092B03D80A209C
:102F500000FB0232F5E70592DFF8988021784046C1
:102F6000032200F0D9F938B1049AC8EB00004023DD
:102F7000834013430493013421781A488DF82810B4
:102F8000062204F1010800F0C7F988B1164B33B9E5
:102F9000039B073323F007030833039313E003ABCA
:102FA0000093304604A92A46104BAFF3008007E097
:102FB00003AB0093304604A92A460C4B00F092F86C
:102FC000421C074603D0099B3B44099341E7AB8968
:102FD0005B0601D4099801E04FF0FF301DB0BDE859
:102FE000F08300BF9E39000800000000612D00083A
:102FF000943900089A3900082DE9F84391461F4694
:103000008A680B69DDF820809342B8BF1346C9F87F
:10301000003091F8432006460C4612B10133C9F83E
:1030200000302368990642BFD9F800300233C9F84E
:103030000030256815F006051CD094F8433022684E
:10304000003318BF012392061FD5E1185A1C302007
:1030500081F84300224494F8451082F8431002336B
:1030600013E03046394604F119020123C04701300C
:1030700007D00135E368D9F800209B1A9D42F0DBA8
:10308000DBE74FF0FF30BDE8F8833046394604F106
:103090004302C0470130F4D02268D9F80050E368F9
:1030A00002F00602042A08BF5D1B2269A3680CBF58
:1030B00025EAE57500259342C4BF9B1AED184FF031
:1030C0000009A9450ADA3046394604F11A020123FB
:1030D000C0470130D5D009F10109F2E70020BDE871
:1030E000F88300002DE9FF410C461746227E6E2A28
:1030F000984606460A9B01F1430100F0A98012D8C8
:10310000632A23D00AD8002A00F0B680582A40F05B
:10311000C58084F84520DFF8F8E151E0642A1ED02C
:10312000692A1CD0BAE0732A00F0AA8009D86F2A55
:103130002BD0702A40F0B280226842F02002226038
:1031400039E0752A21D0782A35D0A7E01A68111DF8
:103150001960136884F8423004F14205A2E0206847
:103160001A6810F0800F03D0101D1860136805E076
:103170004506F9D5101D1860B2F90030002B3BDA76
:103180002D225B4284F8432036E020681A6810F054
:10319000800F03D0101D1860136804E04006F9D5B5
:1031A000101D18601388227EDFF864E16F2A0CBFBF
:1031B00008220A221CE07822DFF858E184F8452032
:1031C0002268186812F0800F00F104051D6001D01C
:1031D000036802E05506FBD50388D00744BF42F0E0
:1031E000200222601BB9226822F0200222601022F5
:1031F000002084F8430002E0DFF814E10A22656849
:10320000A560002DA2BF206820F00400206003B953
:1032100065B10D46B3FBF2F002FB10331EF803302C
:1032200005F8013D03460028F4D100E00D46082AC8
:103230000BD12368DA0708D5236962689A42DEBF9A
:10324000302305F8013C05F1FF35491B21612EE0D3
:1032500025681A68606915F0800F03D0151D1D6080
:10326000136808E015F0400F02F104051D601368B3
:1032700001D0188000E01860002323610D4616E09D
:103280001A68111D1960156862682846002100F04F
:1032900043F808B1401B6060636804E004F1420534
:1032A00084F8422001232361002384F84330CDF8C1
:1032B00000803046214603AA3B46FFF79DFE0130C1
:1032C00002D14FF0FF301FE0304639462A462369CD
:1032D000C0470130F5D023689B0705D4E068039B05
:1032E0009842B8BF18460FE00025E368039A9B1A7E
:1032F0009D42F3DA3046394604F119020123C047F2
:103300000130DED00135F0E704B0BDE8F08100BF48
:10331000A5390008B639000810B5C9B20244904278
:10332000034606D01C788C4200F10100F7D1184604
:1033300010BD002010BD814210B501EB020301D386
:10334000421E0BE09842FBD28118D21AD34204D01D
:1033500013F8014D01F8014DF8E710BD994204D072
:1033600011F8014B02F8014FF8E710BD30B5002904
:103370003DD051F8042C0B1F1D49002AB8BF9B18E3
:103380000A680C4612B95A600B6030BD93420DD2E8
:1033900019685818904201BF5A5852181A6042686A
:1033A0005A60236030BD994203D80A46516800290B
:1033B000F9D1146815199D420AD11B682344D0180D
:1033C0008842136013D10868034413604B680DE012
:1033D00002D90C23036030BD1C681819884204BF51
:1033E00008684968596004BF00191860536030BD0F
:1033F000A8CAFF1F70B5CC1C24F0030408340C2CA1
:1034000038BF0C24002C064603DA0C23336000205E
:1034100070BD8C42F9D3204A136810461946A1B1F9
:103420000A68121B0ED40B2A03D90A608B188C5021
:103430001FE08B420DBF5A684A685A60026018BF8D
:103440000B4616E00B464968E9E7144D2B681BB99B
:10345000304600F04BF828603046214600F046F830
:10346000421C0346D1D0C51C25F0030585420AD174
:103470001C6003F10B001A1D20F00700821A0AD00D
:103480005142995070BD3046E91A00F02FF80130D2
:10349000BBD02B46ECE770BDA8CAFF1FA4CAFF1F14
:1034A000F8B5074615460E4621B91146BDE8F84065
:1034B000FFF7A0BF1AB9FFF759FF2846F8BD00F083
:1034C00025F8A8420ED238462946FFF793FF044656
:1034D00050B131462A46FFF7D9FB38463146FFF74F
:1034E00045FF01E03046F8BD2046F8BD38B5064C32
:1034F0000023054608462360FEF73CFC431C02D12E
:10350000236803B12B6038BDACCAFF1F51F8040C0F
:103510000028BEBF091851F8043CC0180438704791
:10352000E10800AC3300426C7565746F6F746820FD
:103530004F4B0D0A004F6C612049534550005061BC
:1035400067696E6120426C7565746F6F74680D0AEF
:103550000000B004B104B204B304B404B504B6046A
:10356000B704B804B904BA04BB04BC04BD04BE0467
:10357000BF04C004C104C304C40454656D703A257B
:10358000642E25303264430048756D203A25642E40
:103590002530326425250043414E3A2534750052CA
:1035A000583A204F4B0043414E2052580057616912
:1035B00074696E672E2E2E00477275706F2030383A
:1035C0000D0A4775737461766F202D2031323431C6
:1035D0003430320D0A4A6F616F202D203132343180
:1035E0003233370D0A00426C696E6B203D20256C2A
:1035F00075206D730D0A004C4544203D20626C69B6
:103600006E6B696E670D0A004C4544203D204F4E9D
:103610000D0A00414443203D2025640D0A005465F5
:103620006D70203D2025642E2530326420430D0A24
:10363000004572726F2041485431300D0A004341F9
:103640004E204944202575202F20307825303358CE
:103650000D0A54656D70203D2025642E253032649E
:1036600020430D0A48756D203D2025642E253032FB
:10367000642025250D0A004E6F766F2043414E20B1
:103680005458204944203D202575202F203078258E
:103690003033580D0A00506167696E612054656DC2
:1036A00070657261747572610D0A00506167696EB0
:1036B000612043414E0D0A00436F6D616E646F20BF
:1036C000696E76616C69646F0D0A00000002020089
:1036D000000000080A0C0C00030003000C000C00A2
:1036E00000000000000000000003000C003000306B
:1036F00000000000010000000200000000000000C7
:103700000100000002000000383700081120000806
:1037100000000000000000000000000000000000A9
:10372000000000000000000000000000503700080A
:1037300000000004040100008025000000080801CA
:103740001000000000810248050000005C370008FE
:10375000008202480E000000983700089000000028
:103760000100000002000000A4370008E12000086A
:103770000000000000000000000000000000000049
:1037800000000000000000000000000044370008B6
:10379000000000040403000090000000010000008D
:1037A0000200000000C20100000808011000000033
:1037B00000400440008102480000000000000000BA
:1037C000000000000000000009000000053F0001AB
:1037D000000F0100313F0001D00000000100000097
:1037E00000000000D0000000010000000000000008
:1037F0001C380008C9260008A526000881260008F4
:1038000000000000000000000000000000000000B8
:103810000000000002020404FFFF0000A086010077
:103820000000000000000000000000000000000098
:103830000000000000000000000000000000000088
:103840000000000000000000000000000000000078
:103850000200000000000000000000000000000066
:10386000000000000080024880000000000001000D
:1038700000000000010000005003040100000100EE
:103880000000000000000100010101010082024867
:103890000000000000000000000000000000000028
:1038A000B0C8FF1F230000000000000000B4C404E3
:1038B00020A10700401F0100D0C8FF1F2200000107
:1038C0000000000000000000008E0248030000001D
:1038D00074C8FF1F00420148AC380008A038000837
:1038E000B8380008000000000000000000000000E0
:1038F00000000000000000000000000000000000C8
:1039000000000000000000000000000000000000B7
:1039100000000000000000000000000000000000A7
:103920000000000000000000000000000000000097
:103930000000000000000000000000000000000087
:103940000000000000000000000000000000000077
:10395000000000000000000000000000C438000863
:103960008C38000878390008C838000894380008F6
:1039700001000200000000008800000001000000BB
:103980000200000005000000000000001000000020
:1039900000000000232D302B2000686C4C00656671
:1039A0006745464700303132333435363738394190
:1039B00042434445460030313233343536373839A6
:0839C0006162636465660000AA
:1039C8000A00000001000000F401000000000000EF
:1039D800000003406837000854CAFF1F000002486F
:1039E8000837000838CAFF1F809698000060FF9FBC
:1039F8000A0000000050000064C8FF1F00040140D6
:103A08000300000050C8FF1F010023F4010100005B
:103A1800000000000700000000020340F037000823
:103A280070CAFF1F00B4C404020000000000014077
:103A38000000000000B4C404004001480000000079
:103A480000440040243800080102000080C8FF1F1D
:103A5800A0C8FF1F4C3800080040004002010000C9
:103A6800004800403838000801020000000000004B
:103A780060540148F00000800000002008000000A9
:103A8800000000000000000000000000000000002E
:103A980040540148F00000800000002008000000A9
:103AA800000000000000000001000000000000000D
:103AB8002CC9FF1F84390008903900088CC8FF1FE3
:103AC8000000000000000000020401001CC9FF1FE4
:103AD800A0CAFF1F004400400000000002002F00A1
:103AE800000000000000000000FF00000CC9FF1FDC
:103AF80000000000000000000000000000000000BE
:103B080000000000000000000000000000000000AD
:103B180086350008000000000000000000000000DA
:103B2800000000000000000000000000000000008D
:103B3800000000000000000000000000000000007D
:103B4800000000000000000000000000000000006D
:043B580030C9FF1F52
:0400000508000201EC
:00000001FF
